{
  "contractName": "Mint",
  "abi": [
    {
      "inputs": [
        {
          "internalType": "address",
          "name": "collateral",
          "type": "address"
        }
      ],
      "stateMutability": "nonpayable",
      "type": "constructor"
    },
    {
      "anonymous": false,
      "inputs": [
        {
          "indexed": true,
          "internalType": "address",
          "name": "previousOwner",
          "type": "address"
        },
        {
          "indexed": true,
          "internalType": "address",
          "name": "newOwner",
          "type": "address"
        }
      ],
      "name": "OwnershipTransferred",
      "type": "event"
    },
    {
      "inputs": [],
      "name": "collateralToken",
      "outputs": [
        {
          "internalType": "address",
          "name": "",
          "type": "address"
        }
      ],
      "stateMutability": "view",
      "type": "function",
      "constant": true
    },
    {
      "inputs": [],
      "name": "owner",
      "outputs": [
        {
          "internalType": "address",
          "name": "",
          "type": "address"
        }
      ],
      "stateMutability": "view",
      "type": "function",
      "constant": true
    },
    {
      "inputs": [],
      "name": "renounceOwnership",
      "outputs": [],
      "stateMutability": "nonpayable",
      "type": "function"
    },
    {
      "inputs": [
        {
          "internalType": "address",
          "name": "newOwner",
          "type": "address"
        }
      ],
      "name": "transferOwnership",
      "outputs": [],
      "stateMutability": "nonpayable",
      "type": "function"
    },
    {
      "inputs": [
        {
          "internalType": "address",
          "name": "assetToken",
          "type": "address"
        },
        {
          "internalType": "uint256",
          "name": "minCollateralRatio",
          "type": "uint256"
        },
        {
          "internalType": "address",
          "name": "priceFeed",
          "type": "address"
        }
      ],
      "name": "registerAsset",
      "outputs": [],
      "stateMutability": "nonpayable",
      "type": "function"
    },
    {
      "inputs": [
        {
          "internalType": "uint256",
          "name": "positionIndex",
          "type": "uint256"
        }
      ],
      "name": "getPosition",
      "outputs": [
        {
          "internalType": "address",
          "name": "",
          "type": "address"
        },
        {
          "internalType": "uint256",
          "name": "",
          "type": "uint256"
        },
        {
          "internalType": "address",
          "name": "",
          "type": "address"
        },
        {
          "internalType": "uint256",
          "name": "",
          "type": "uint256"
        }
      ],
      "stateMutability": "view",
      "type": "function",
      "constant": true
    },
    {
      "inputs": [
        {
          "internalType": "uint256",
          "name": "collateralAmount",
          "type": "uint256"
        },
        {
          "internalType": "address",
          "name": "assetToken",
          "type": "address"
        },
        {
          "internalType": "uint256",
          "name": "collateralRatio",
          "type": "uint256"
        }
      ],
      "name": "getMintAmount",
      "outputs": [
        {
          "internalType": "uint256",
          "name": "",
          "type": "uint256"
        }
      ],
      "stateMutability": "view",
      "type": "function",
      "constant": true
    },
    {
      "inputs": [
        {
          "internalType": "address",
          "name": "assetToken",
          "type": "address"
        }
      ],
      "name": "checkRegistered",
      "outputs": [
        {
          "internalType": "bool",
          "name": "",
          "type": "bool"
        }
      ],
      "stateMutability": "view",
      "type": "function",
      "constant": true
    },
    {
      "inputs": [
        {
          "internalType": "uint256",
          "name": "collateralAmount",
          "type": "uint256"
        },
        {
          "internalType": "address",
          "name": "assetToken",
          "type": "address"
        },
        {
          "internalType": "uint256",
          "name": "collateralRatio",
          "type": "uint256"
        }
      ],
      "name": "openPosition",
      "outputs": [],
      "stateMutability": "nonpayable",
      "type": "function"
    },
    {
      "inputs": [
        {
          "internalType": "uint256",
          "name": "positionIndex",
          "type": "uint256"
        }
      ],
      "name": "closePosition",
      "outputs": [],
      "stateMutability": "nonpayable",
      "type": "function"
    },
    {
      "inputs": [
        {
          "internalType": "uint256",
          "name": "positionIndex",
          "type": "uint256"
        },
        {
          "internalType": "uint256",
          "name": "collateralAmount",
          "type": "uint256"
        }
      ],
      "name": "deposit",
      "outputs": [],
      "stateMutability": "nonpayable",
      "type": "function"
    },
    {
      "inputs": [
        {
          "internalType": "uint256",
          "name": "positionIndex",
          "type": "uint256"
        },
        {
          "internalType": "uint256",
          "name": "withdrawAmount",
          "type": "uint256"
        }
      ],
      "name": "withdraw",
      "outputs": [],
      "stateMutability": "nonpayable",
      "type": "function"
    },
    {
      "inputs": [
        {
          "internalType": "uint256",
          "name": "positionIndex",
          "type": "uint256"
        },
        {
          "internalType": "uint256",
          "name": "mintAmount",
          "type": "uint256"
        }
      ],
      "name": "mint",
      "outputs": [],
      "stateMutability": "nonpayable",
      "type": "function"
    },
    {
      "inputs": [
        {
          "internalType": "uint256",
          "name": "positionIndex",
          "type": "uint256"
        },
        {
          "internalType": "uint256",
          "name": "burnAmount",
          "type": "uint256"
        }
      ],
      "name": "burn",
      "outputs": [],
      "stateMutability": "nonpayable",
      "type": "function"
    }
  ],
  "bytecode": "0x60806040523480156200001157600080fd5b50604051620029e2380380620029e2833981810160405281019062000037919062000182565b620000576200004b6200009f60201b60201c565b620000a760201b60201c565b80600460006101000a81548173ffffffffffffffffffffffffffffffffffffffff021916908373ffffffffffffffffffffffffffffffffffffffff1602179055505062000207565b600033905090565b60008060009054906101000a900473ffffffffffffffffffffffffffffffffffffffff169050816000806101000a81548173ffffffffffffffffffffffffffffffffffffffff021916908373ffffffffffffffffffffffffffffffffffffffff1602179055508173ffffffffffffffffffffffffffffffffffffffff168173ffffffffffffffffffffffffffffffffffffffff167f8be0079c531659141344cd1fd0a4f28419497f9722a3daafe3b4186f6b6457e060405160405180910390a35050565b6000815190506200017c81620001ed565b92915050565b6000602082840312156200019b576200019a620001e8565b5b6000620001ab848285016200016b565b91505092915050565b6000620001c182620001c8565b9050919050565b600073ffffffffffffffffffffffffffffffffffffffff82169050919050565b600080fd5b620001f881620001b4565b81146200020457600080fd5b50565b6127cb80620002176000396000f3fe608060405234801561001057600080fd5b50600436106100ea5760003560e01c8063b2016bd41161008c578063e2bbb15811610066578063e2bbb1581461020d578063eb02c30114610229578063ee2574af1461025c578063f2fde38b1461028c576100ea565b8063b2016bd4146101b7578063b390c0ab146101d5578063df8665d7146101f1576100ea565b80634846cd9d116100c85780634846cd9d14610143578063715018a6146101735780638da5cb5b1461017d578063a126d6011461019b576100ea565b8063064526bb146100ef5780631b2ef1ca1461010b578063441a3e7014610127575b600080fd5b61010960048036038101906101049190611a23565b6102a8565b005b61012560048036038101906101209190611b63565b61055b565b005b610141600480360381019061013c9190611b63565b610837565b005b61015d60048036038101906101589190611b10565b610b2c565b60405161016a9190612082565b60405180910390f35b61017b610cdb565b005b610185610cef565b6040516101929190611de7565b60405180910390f35b6101b560048036038101906101b09190611ae3565b610d18565b005b6101bf610f8a565b6040516101cc9190611de7565b60405180910390f35b6101ef60048036038101906101ea9190611b63565b610fb0565b005b61020b60048036038101906102069190611b10565b61110a565b005b61022760048036038101906102229190611b63565b6114d0565b005b610243600480360381019061023e9190611ae3565b61164b565b6040516102539493929190611e62565b60405180910390f35b610276600480360381019061027191906119f6565b611710565b6040516102839190611ea7565b60405180910390f35b6102a660048036038101906102a191906119f6565b6117aa565b005b6102b061182e565b600073ffffffffffffffffffffffffffffffffffffffff168373ffffffffffffffffffffffffffffffffffffffff161415610320576040517f08c379a000000000000000000000000000000000000000000000000000000000815260040161031790611fe2565b60405180910390fd5b6001821015610364576040517f08c379a000000000000000000000000000000000000000000000000000000000815260040161035b90612042565b60405180910390fd5b600073ffffffffffffffffffffffffffffffffffffffff16600160008573ffffffffffffffffffffffffffffffffffffffff1673ffffffffffffffffffffffffffffffffffffffff16815260200190815260200160002060000160009054906101000a900473ffffffffffffffffffffffffffffffffffffffff1673ffffffffffffffffffffffffffffffffffffffff1614610435576040517f08c379a000000000000000000000000000000000000000000000000000000000815260040161042c90611ee2565b60405180910390fd5b60405180606001604052808473ffffffffffffffffffffffffffffffffffffffff1681526020018381526020018273ffffffffffffffffffffffffffffffffffffffff16815250600160008573ffffffffffffffffffffffffffffffffffffffff1673ffffffffffffffffffffffffffffffffffffffff16815260200190815260200160002060008201518160000160006101000a81548173ffffffffffffffffffffffffffffffffffffffff021916908373ffffffffffffffffffffffffffffffffffffffff1602179055506020820151816001015560408201518160020160006101000a81548173ffffffffffffffffffffffffffffffffffffffff021916908373ffffffffffffffffffffffffffffffffffffffff160217905550905050505050565b60006003600084815260200190815260200160002090503373ffffffffffffffffffffffffffffffffffffffff168160010160009054906101000a900473ffffffffffffffffffffffffffffffffffffffff1673ffffffffffffffffffffffffffffffffffffffff1614610604576040517f08c379a00000000000000000000000000000000000000000000000000000000081526004016105fb90611ec2565b60405180910390fd5b60008160030160009054906101000a900473ffffffffffffffffffffffffffffffffffffffff1673ffffffffffffffffffffffffffffffffffffffff1663313ce5676040518163ffffffff1660e01b815260040160206040518083038186803b15801561067057600080fd5b505afa158015610684573d6000803e3d6000fd5b505050506040513d601f19601f820116820180604052508101906106a89190611ba3565b60ff16600a6106b79190612188565b82600201546106c691906122a6565b905060008383600401546106da91906120ae565b9050600081836106ea9190612104565b9050600160008560030160009054906101000a900473ffffffffffffffffffffffffffffffffffffffff1673ffffffffffffffffffffffffffffffffffffffff1673ffffffffffffffffffffffffffffffffffffffff16815260200190815260200160002060010154811015610795576040517f08c379a000000000000000000000000000000000000000000000000000000000815260040161078c90611fa2565b60405180910390fd5b8184600401819055508360030160009054906101000a900473ffffffffffffffffffffffffffffffffffffffff1673ffffffffffffffffffffffffffffffffffffffff166340c10f1933876040518363ffffffff1660e01b81526004016107fd929190611e39565b600060405180830381600087803b15801561081757600080fd5b505af115801561082b573d6000803e3d6000fd5b50505050505050505050565b60006003600084815260200190815260200160002090503373ffffffffffffffffffffffffffffffffffffffff168160010160009054906101000a900473ffffffffffffffffffffffffffffffffffffffff1673ffffffffffffffffffffffffffffffffffffffff16146108e0576040517f08c379a00000000000000000000000000000000000000000000000000000000081526004016108d790612002565b60405180910390fd5b60008282600201546108f29190612300565b9050600082600401548360030160009054906101000a900473ffffffffffffffffffffffffffffffffffffffff1673ffffffffffffffffffffffffffffffffffffffff1663313ce5676040518163ffffffff1660e01b815260040160206040518083038186803b15801561096557600080fd5b505afa158015610979573d6000803e3d6000fd5b505050506040513d601f19601f8201168201806040525081019061099d9190611ba3565b60ff16600a6109ac9190612188565b836109b791906122a6565b6109c19190612104565b9050600160008460030160009054906101000a900473ffffffffffffffffffffffffffffffffffffffff1673ffffffffffffffffffffffffffffffffffffffff1673ffffffffffffffffffffffffffffffffffffffff16815260200190815260200160002060010154811015610a6c576040517f08c379a0000000000000000000000000000000000000000000000000000000008152600401610a6390611fa2565b60405180910390fd5b818360020181905550600460009054906101000a900473ffffffffffffffffffffffffffffffffffffffff1673ffffffffffffffffffffffffffffffffffffffff1663a9059cbb33866040518363ffffffff1660e01b8152600401610ad2929190611e39565b602060405180830381600087803b158015610aec57600080fd5b505af1158015610b00573d6000803e3d6000fd5b505050506040513d601f19601f82011682018060405250810190610b249190611a76565b505050505050565b600080600160008573ffffffffffffffffffffffffffffffffffffffff1673ffffffffffffffffffffffffffffffffffffffff168152602001908152602001600020905060008160020160009054906101000a900473ffffffffffffffffffffffffffffffffffffffff1673ffffffffffffffffffffffffffffffffffffffff16638e15f4736040518163ffffffff1660e01b8152600401604080518083038186803b158015610bdb57600080fd5b505afa158015610bef573d6000803e3d6000fd5b505050506040513d601f19601f82011682018060405250810190610c139190611aa3565b50905060008573ffffffffffffffffffffffffffffffffffffffff1663313ce5676040518163ffffffff1660e01b815260040160206040518083038186803b158015610c5e57600080fd5b505afa158015610c72573d6000803e3d6000fd5b505050506040513d601f19601f82011682018060405250810190610c969190611ba3565b9050600085838360ff16600a610cac9190612188565b8a610cb791906122a6565b610cc19190612104565b610ccb9190612104565b9050809450505050509392505050565b610ce361182e565b610ced60006118ac565b565b60008060009054906101000a900473ffffffffffffffffffffffffffffffffffffffff16905090565b60006003600083815260200190815260200160002090503373ffffffffffffffffffffffffffffffffffffffff168160010160009054906101000a900473ffffffffffffffffffffffffffffffffffffffff1673ffffffffffffffffffffffffffffffffffffffff1614610dc1576040517f08c379a0000000000000000000000000000000000000000000000000000000008152600401610db890612022565b60405180910390fd5b8060030160009054906101000a900473ffffffffffffffffffffffffffffffffffffffff1673ffffffffffffffffffffffffffffffffffffffff16639dc29fac3383600401546040518363ffffffff1660e01b8152600401610e24929190611e39565b600060405180830381600087803b158015610e3e57600080fd5b505af1158015610e52573d6000803e3d6000fd5b50505050600460009054906101000a900473ffffffffffffffffffffffffffffffffffffffff1673ffffffffffffffffffffffffffffffffffffffff1663a9059cbb3383600201546040518363ffffffff1660e01b8152600401610eb7929190611e39565b602060405180830381600087803b158015610ed157600080fd5b505af1158015610ee5573d6000803e3d6000fd5b505050506040513d601f19601f82011682018060405250810190610f099190611a76565b50600360008381526020019081526020016000206000808201600090556001820160006101000a81549073ffffffffffffffffffffffffffffffffffffffff021916905560028201600090556003820160006101000a81549073ffffffffffffffffffffffffffffffffffffffff0219169055600482016000905550505050565b600460009054906101000a900473ffffffffffffffffffffffffffffffffffffffff1681565b60006003600084815260200190815260200160002090503373ffffffffffffffffffffffffffffffffffffffff168160010160009054906101000a900473ffffffffffffffffffffffffffffffffffffffff1673ffffffffffffffffffffffffffffffffffffffff1614611059576040517f08c379a000000000000000000000000000000000000000000000000000000000815260040161105090611f02565b60405180910390fd5b8181600401600082825461106d9190612300565b925050819055508060030160009054906101000a900473ffffffffffffffffffffffffffffffffffffffff1673ffffffffffffffffffffffffffffffffffffffff16639dc29fac33846040518363ffffffff1660e01b81526004016110d3929190611e39565b600060405180830381600087803b1580156110ed57600080fd5b505af1158015611101573d6000803e3d6000fd5b50505050505050565b8173ffffffffffffffffffffffffffffffffffffffff16600160008473ffffffffffffffffffffffffffffffffffffffff1673ffffffffffffffffffffffffffffffffffffffff16815260200190815260200160002060000160009054906101000a900473ffffffffffffffffffffffffffffffffffffffff1673ffffffffffffffffffffffffffffffffffffffff16146111da576040517f08c379a00000000000000000000000000000000000000000000000000000000081526004016111d190612062565b60405180910390fd5b6000600160008473ffffffffffffffffffffffffffffffffffffffff1673ffffffffffffffffffffffffffffffffffffffff168152602001908152602001600020905060008160010154905080831015611269576040517f08c379a000000000000000000000000000000000000000000000000000000000815260040161126090611fc2565b60405180910390fd5b6000611276868686610b2c565b9050600460009054906101000a900473ffffffffffffffffffffffffffffffffffffffff1673ffffffffffffffffffffffffffffffffffffffff166323b872dd3330896040518463ffffffff1660e01b81526004016112d793929190611e02565b602060405180830381600087803b1580156112f157600080fd5b505af1158015611305573d6000803e3d6000fd5b505050506040513d601f19601f820116820180604052508101906113299190611a76565b506040518060a0016040528060025481526020013373ffffffffffffffffffffffffffffffffffffffff1681526020018781526020018673ffffffffffffffffffffffffffffffffffffffff168152602001828152506003600060025481526020019081526020016000206000820151816000015560208201518160010160006101000a81548173ffffffffffffffffffffffffffffffffffffffff021916908373ffffffffffffffffffffffffffffffffffffffff1602179055506040820151816002015560608201518160030160006101000a81548173ffffffffffffffffffffffffffffffffffffffff021916908373ffffffffffffffffffffffffffffffffffffffff160217905550608082015181600401559050508473ffffffffffffffffffffffffffffffffffffffff166340c10f1933836040518363ffffffff1660e01b815260040161147e929190611e39565b600060405180830381600087803b15801561149857600080fd5b505af11580156114ac573d6000803e3d6000fd5b50505050600260008154809291906114c390612393565b9190505550505050505050565b60006003600084815260200190815260200160002090503373ffffffffffffffffffffffffffffffffffffffff168160010160009054906101000a900473ffffffffffffffffffffffffffffffffffffffff1673ffffffffffffffffffffffffffffffffffffffff1614611579576040517f08c379a000000000000000000000000000000000000000000000000000000000815260040161157090611f62565b60405180910390fd5b8181600201600082825461158d91906120ae565b92505081905550600460009054906101000a900473ffffffffffffffffffffffffffffffffffffffff1673ffffffffffffffffffffffffffffffffffffffff166323b872dd3330856040518463ffffffff1660e01b81526004016115f393929190611e02565b602060405180830381600087803b15801561160d57600080fd5b505af1158015611621573d6000803e3d6000fd5b505050506040513d601f19601f820116820180604052508101906116459190611a76565b50505050565b6000806000806002548510611695576040517f08c379a000000000000000000000000000000000000000000000000000000000815260040161168c90611f42565b60405180910390fd5b60006003600087815260200190815260200160002090508060010160009054906101000a900473ffffffffffffffffffffffffffffffffffffffff1681600201548260030160009054906101000a900473ffffffffffffffffffffffffffffffffffffffff1683600401549450945094509450509193509193565b60008173ffffffffffffffffffffffffffffffffffffffff16600160008473ffffffffffffffffffffffffffffffffffffffff1673ffffffffffffffffffffffffffffffffffffffff16815260200190815260200160002060000160009054906101000a900473ffffffffffffffffffffffffffffffffffffffff1673ffffffffffffffffffffffffffffffffffffffff16149050919050565b6117b261182e565b600073ffffffffffffffffffffffffffffffffffffffff168173ffffffffffffffffffffffffffffffffffffffff161415611822576040517f08c379a000000000000000000000000000000000000000000000000000000000815260040161181990611f22565b60405180910390fd5b61182b816118ac565b50565b611836611970565b73ffffffffffffffffffffffffffffffffffffffff16611854610cef565b73ffffffffffffffffffffffffffffffffffffffff16146118aa576040517f08c379a00000000000000000000000000000000000000000000000000000000081526004016118a190611f82565b60405180910390fd5b565b60008060009054906101000a900473ffffffffffffffffffffffffffffffffffffffff169050816000806101000a81548173ffffffffffffffffffffffffffffffffffffffff021916908373ffffffffffffffffffffffffffffffffffffffff1602179055508173ffffffffffffffffffffffffffffffffffffffff168173ffffffffffffffffffffffffffffffffffffffff167f8be0079c531659141344cd1fd0a4f28419497f9722a3daafe3b4186f6b6457e060405160405180910390a35050565b600033905090565b60008135905061198781612722565b92915050565b60008151905061199c81612739565b92915050565b6000815190506119b181612750565b92915050565b6000813590506119c681612767565b92915050565b6000815190506119db81612767565b92915050565b6000815190506119f08161277e565b92915050565b600060208284031215611a0c57611a0b61243a565b5b6000611a1a84828501611978565b91505092915050565b600080600060608486031215611a3c57611a3b61243a565b5b6000611a4a86828701611978565b9350506020611a5b868287016119b7565b9250506040611a6c86828701611978565b9150509250925092565b600060208284031215611a8c57611a8b61243a565b5b6000611a9a8482850161198d565b91505092915050565b60008060408385031215611aba57611ab961243a565b5b6000611ac8858286016119a2565b9250506020611ad9858286016119cc565b9150509250929050565b600060208284031215611af957611af861243a565b5b6000611b07848285016119b7565b91505092915050565b600080600060608486031215611b2957611b2861243a565b5b6000611b37868287016119b7565b9350506020611b4886828701611978565b9250506040611b59868287016119b7565b9150509250925092565b60008060408385031215611b7a57611b7961243a565b5b6000611b88858286016119b7565b9250506020611b99858286016119b7565b9150509250929050565b600060208284031215611bb957611bb861243a565b5b6000611bc7848285016119e1565b91505092915050565b611bd981612334565b82525050565b611be881612346565b82525050565b6000611bfb60178361209d565b9150611c068261244c565b602082019050919050565b6000611c1e601c8361209d565b9150611c2982612475565b602082019050919050565b6000611c4160178361209d565b9150611c4c8261249e565b602082019050919050565b6000611c6460268361209d565b9150611c6f826124c7565b604082019050919050565b6000611c87600d8361209d565b9150611c9282612516565b602082019050919050565b6000611caa601a8361209d565b9150611cb58261253f565b602082019050919050565b6000611ccd60208361209d565b9150611cd882612568565b602082019050919050565b6000611cf060258361209d565b9150611cfb82612591565b604082019050919050565b6000611d13601b8361209d565b9150611d1e826125e0565b602082019050919050565b6000611d36601a8361209d565b9150611d4182612609565b602082019050919050565b6000611d59601b8361209d565b9150611d6482612632565b602082019050919050565b6000611d7c60258361209d565b9150611d878261265b565b604082019050919050565b6000611d9f602c8361209d565b9150611daa826126aa565b604082019050919050565b6000611dc260148361209d565b9150611dcd826126f9565b602082019050919050565b611de18161237c565b82525050565b6000602082019050611dfc6000830184611bd0565b92915050565b6000606082019050611e176000830186611bd0565b611e246020830185611bd0565b611e316040830184611dd8565b949350505050565b6000604082019050611e4e6000830185611bd0565b611e5b6020830184611dd8565b9392505050565b6000608082019050611e776000830187611bd0565b611e846020830186611dd8565b611e916040830185611bd0565b611e9e6060830184611dd8565b95945050505050565b6000602082019050611ebc6000830184611bdf565b92915050565b60006020820190508181036000830152611edb81611bee565b9050919050565b60006020820190508181036000830152611efb81611c11565b9050919050565b60006020820190508181036000830152611f1b81611c34565b9050919050565b60006020820190508181036000830152611f3b81611c57565b9050919050565b60006020820190508181036000830152611f5b81611c7a565b9050919050565b60006020820190508181036000830152611f7b81611c9d565b9050919050565b60006020820190508181036000830152611f9b81611cc0565b9050919050565b60006020820190508181036000830152611fbb81611ce3565b9050919050565b60006020820190508181036000830152611fdb81611d06565b9050919050565b60006020820190508181036000830152611ffb81611d29565b9050919050565b6000602082019050818103600083015261201b81611d4c565b9050919050565b6000602082019050818103600083015261203b81611d6f565b9050919050565b6000602082019050818103600083015261205b81611d92565b9050919050565b6000602082019050818103600083015261207b81611db5565b9050919050565b60006020820190506120976000830184611dd8565b92915050565b600082825260208201905092915050565b60006120b98261237c565b91506120c48361237c565b9250827fffffffffffffffffffffffffffffffffffffffffffffffffffffffffffffffff038211156120f9576120f86123dc565b5b828201905092915050565b600061210f8261237c565b915061211a8361237c565b92508261212a5761212961240b565b5b828204905092915050565b6000808291508390505b600185111561217f5780860481111561215b5761215a6123dc565b5b600185161561216a5780820291505b80810290506121788561243f565b945061213f565b94509492505050565b60006121938261237c565b915061219e8361237c565b92506121cb7fffffffffffffffffffffffffffffffffffffffffffffffffffffffffffffffff84846121d3565b905092915050565b6000826121e3576001905061229f565b816121f1576000905061229f565b8160018114612207576002811461221157612240565b600191505061229f565b60ff841115612223576122226123dc565b5b8360020a91508482111561223a576122396123dc565b5b5061229f565b5060208310610133831016604e8410600b84101617156122755782820a9050838111156122705761226f6123dc565b5b61229f565b6122828484846001612135565b92509050818404811115612299576122986123dc565b5b81810290505b9392505050565b60006122b18261237c565b91506122bc8361237c565b9250817fffffffffffffffffffffffffffffffffffffffffffffffffffffffffffffffff04831182151516156122f5576122f46123dc565b5b828202905092915050565b600061230b8261237c565b91506123168361237c565b925082821015612329576123286123dc565b5b828203905092915050565b600061233f8261235c565b9050919050565b60008115159050919050565b6000819050919050565b600073ffffffffffffffffffffffffffffffffffffffff82169050919050565b6000819050919050565b600060ff82169050919050565b600061239e8261237c565b91507fffffffffffffffffffffffffffffffffffffffffffffffffffffffffffffffff8214156123d1576123d06123dc565b5b600182019050919050565b7f4e487b7100000000000000000000000000000000000000000000000000000000600052601160045260246000fd5b7f4e487b7100000000000000000000000000000000000000000000000000000000600052601260045260246000fd5b600080fd5b60008160011c9050919050565b7f4f6e6c7920746865206f776e65722063616e206d696e74000000000000000000600082015250565b7f41737365742077617320616c7265616479207265676973746572656400000000600082015250565b7f4f6e6c7920746865206f776e65722063616e206275726e000000000000000000600082015250565b7f4f776e61626c653a206e6577206f776e657220697320746865207a65726f206160008201527f6464726573730000000000000000000000000000000000000000000000000000602082015250565b7f496e76616c696420696e64657800000000000000000000000000000000000000600082015250565b7f4f6e6c7920746865206f776e65722063616e206465706f736974000000000000600082015250565b7f4f776e61626c653a2063616c6c6572206973206e6f7420746865206f776e6572600082015250565b7f436f6c6c61746572616c20726174696f20776f756c642066616c6c2062656c6f60008201527f77204d4352000000000000000000000000000000000000000000000000000000602082015250565b7f436f6c6c61746572616c20726174696f20697320746f6f206c6f770000000000600082015250565b7f496e76616c6964206173736574546f6b656e2061646472657373000000000000600082015250565b7f4f6e6c7920746865206f776e65722063616e2077697468647261770000000000600082015250565b7f4f6e6c7920746865206f776e65722063616e20636c6f73652074686520706f7360008201527f6974696f6e000000000000000000000000000000000000000000000000000000602082015250565b7f6d696e436f6c6c61746572616c526174696f206d75737420626520677265617460008201527f6572207468616e20313030250000000000000000000000000000000000000000602082015250565b7f4173736574206e6f742072656769737465726564000000000000000000000000600082015250565b61272b81612334565b811461273657600080fd5b50565b61274281612346565b811461274d57600080fd5b50565b61275981612352565b811461276457600080fd5b50565b6127708161237c565b811461277b57600080fd5b50565b61278781612386565b811461279257600080fd5b5056fea2646970667358221220cb161156c85788542d0f8b066b788558a7ec449d9fc4984a051f68d8bc2c540b64736f6c63430008070033",
  "immutableReferences": {},
  "source": "// SPDX-License-Identifier: MIT\npragma solidity >=0.8.0 <0.9.0;\n\nimport \"@openzeppelin/contracts/access/Ownable.sol\";\nimport \"./interfaces/IPriceFeed.sol\";\nimport \"./interfaces/IMint.sol\";\nimport \"./sAsset.sol\";\nimport \"./EUSD.sol\";\n\ncontract Mint is Ownable, IMint{\n\n    struct Asset {\n        address token;\n        uint minCollateralRatio;\n        address priceFeed;\n    }\n\n    struct Position {\n        uint idx;\n        address owner;\n        uint collateralAmount;\n        address assetToken;\n        uint assetAmount;\n    }\n\n    mapping(address => Asset) _assetMap;\n    uint _currentPositionIndex;\n    mapping(uint => Position) _idxPositionMap;\n    address public collateralToken;\n    \n\n    constructor(address collateral) {\n        collateralToken = collateral;\n    }\n\n    function registerAsset(address assetToken, uint minCollateralRatio, address priceFeed) external override onlyOwner {\n        require(assetToken != address(0), \"Invalid assetToken address\");\n        require(minCollateralRatio >= 1, \"minCollateralRatio must be greater than 100%\");\n        require(_assetMap[assetToken].token == address(0), \"Asset was already registered\");\n        \n        _assetMap[assetToken] = Asset(assetToken, minCollateralRatio, priceFeed);\n    }\n\n    function getPosition(uint positionIndex) external view returns (address, uint, address, uint) {\n        require(positionIndex < _currentPositionIndex, \"Invalid index\");\n        Position storage position = _idxPositionMap[positionIndex];\n        return (position.owner, position.collateralAmount, position.assetToken, position.assetAmount);\n    }\n\n    function getMintAmount(uint collateralAmount, address assetToken, uint collateralRatio) public view returns (uint) {\n        Asset storage asset = _assetMap[assetToken];\n        (int relativeAssetPrice, ) = IPriceFeed(asset.priceFeed).getLatestPrice();\n        uint8 decimal = sAsset(assetToken).decimals();\n        uint mintAmount = collateralAmount * (10 ** uint256(decimal)) / uint(relativeAssetPrice) / collateralRatio ;\n        return mintAmount;\n    }\n\n    function checkRegistered(address assetToken) public view returns (bool) {\n        return _assetMap[assetToken].token == assetToken;\n    }\n\n    /* TODO: implement your functions here */\n    function openPosition(uint collateralAmount, address assetToken, uint collateralRatio) external override {\n        // Ensure the asset is registered\n        require(_assetMap[assetToken].token == assetToken, \"Asset not registered\");\n        \n        Asset storage asset = _assetMap[assetToken];\n        uint MCR = asset.minCollateralRatio;\n\n        // Ensure the collateral ratio is greater than or equal to the asset's MCR\n        require(collateralRatio >= MCR, \"Collateral ratio is too low\");\n        \n        // Calculate the amount of sAssets to mint\n        uint mintAmount = getMintAmount(collateralAmount, assetToken, collateralRatio);\n        \n        // Transfer the collateral from the user to the contract\n        IERC20(collateralToken).transferFrom(msg.sender, address(this), collateralAmount);\n        \n        // Store the new position\n        _idxPositionMap[_currentPositionIndex] = Position({\n            idx: _currentPositionIndex,\n            owner: msg.sender,\n            collateralAmount: collateralAmount,\n            assetToken: assetToken,\n            assetAmount: mintAmount\n        });\n        \n        // Mint the sAssets and send them to the user\n        sAsset(assetToken).mint(msg.sender, mintAmount);\n\n        // Increment the position index\n        _currentPositionIndex++;\n    }\n\n    function closePosition(uint positionIndex) external override {\n        Position storage position = _idxPositionMap[positionIndex];\n        require(position.owner == msg.sender, \"Only the owner can close the position\");\n\n        // Burn all minted sAssets\n        sAsset(position.assetToken).burn(msg.sender, position.assetAmount);\n        \n        // Return collateral to the user\n        IERC20(collateralToken).transfer(msg.sender, position.collateralAmount);\n        \n        // Remove the position from the mapping\n        delete _idxPositionMap[positionIndex];\n    }\n\n    function deposit(uint positionIndex, uint collateralAmount) external override {\n        Position storage position = _idxPositionMap[positionIndex];\n        require(position.owner == msg.sender, \"Only the owner can deposit\");\n\n        // Add the new collateral to the existing collateral\n        position.collateralAmount += collateralAmount;\n\n        // Transfer collateral to the contract\n        IERC20(collateralToken).transferFrom(msg.sender, address(this), collateralAmount);\n    }\n\n    function withdraw(uint positionIndex, uint withdrawAmount) external override {\n        Position storage position = _idxPositionMap[positionIndex];\n        require(position.owner == msg.sender, \"Only the owner can withdraw\");\n\n        uint newCollateralAmount = position.collateralAmount - withdrawAmount;\n\n        // Calculate the new collateral ratio after withdrawal\n        uint newCollateralRatio = newCollateralAmount * (10 ** uint256(sAsset(position.assetToken).decimals())) / position.assetAmount;\n        require(newCollateralRatio >= _assetMap[position.assetToken].minCollateralRatio, \"Collateral ratio would fall below MCR\");\n\n        // Update the collateral amount\n        position.collateralAmount = newCollateralAmount;\n\n        // Transfer collateral to the user\n        IERC20(collateralToken).transfer(msg.sender, withdrawAmount);\n    }\n\n    function mint(uint positionIndex, uint mintAmount) external override {\n        Position storage position = _idxPositionMap[positionIndex];\n        require(position.owner == msg.sender, \"Only the owner can mint\");\n\n        // Calculate the total collateral value and check the collateral ratio\n        uint totalCollateralValue = position.collateralAmount * (10 ** uint256(sAsset(position.assetToken).decimals()));\n        uint newAssetAmount = position.assetAmount + mintAmount;\n        uint newCollateralRatio = totalCollateralValue / newAssetAmount;\n\n        // Ensure the collateral ratio is still above the MCR\n        require(newCollateralRatio >= _assetMap[position.assetToken].minCollateralRatio, \"Collateral ratio would fall below MCR\");\n\n        // Update the asset amount\n        position.assetAmount = newAssetAmount;\n\n        // Mint new sAssets and send to the user\n        sAsset(position.assetToken).mint(msg.sender, mintAmount);\n\n    }\n\n    function burn(uint positionIndex, uint burnAmount) external override {\n        Position storage position = _idxPositionMap[positionIndex];\n        require(position.owner == msg.sender, \"Only the owner can burn\");\n\n        position.assetAmount -= burnAmount;\n\n        sAsset(position.assetToken).burn(msg.sender, burnAmount);\n    }\n\n}",
  "sourcePath": "/Users/ethanpuckett/COS-ECE-473-Spring-2025-Final/Assignments/Assignment4/contracts/Mint.sol",
  "compiler": {
    "name": "solc",
    "version": "0.8.7+commit.e28d00a7.Emscripten.clang"
  },
  "schemaVersion": "3.4.16",
  "updatedAt": "2025-03-24T17:49:10.928Z",
  "networkType": "ethereum",
  "devdoc": {
    "kind": "dev",
    "methods": {
      "owner()": {
        "details": "Returns the address of the current owner."
      },
      "renounceOwnership()": {
        "details": "Leaves the contract without owner. It will not be possible to call `onlyOwner` functions. Can only be called by the current owner. NOTE: Renouncing ownership will leave the contract without an owner, thereby disabling any functionality that is only available to the owner."
      },
      "transferOwnership(address)": {
        "details": "Transfers ownership of the contract to a new account (`newOwner`). Can only be called by the current owner."
      }
    },
    "version": 1
  },
  "userdoc": {
    "kind": "user",
    "methods": {},
    "version": 1
  }
}