{
  "contractName": "sAsset",
  "abi": [
    {
      "inputs": [
        {
          "internalType": "string",
          "name": "name",
          "type": "string"
        },
        {
          "internalType": "string",
          "name": "symbol",
          "type": "string"
        },
        {
          "internalType": "uint256",
          "name": "initialSupply",
          "type": "uint256"
        }
      ],
      "stateMutability": "nonpayable",
      "type": "constructor"
    },
    {
      "anonymous": false,
      "inputs": [
        {
          "indexed": true,
          "internalType": "address",
          "name": "owner",
          "type": "address"
        },
        {
          "indexed": true,
          "internalType": "address",
          "name": "spender",
          "type": "address"
        },
        {
          "indexed": false,
          "internalType": "uint256",
          "name": "value",
          "type": "uint256"
        }
      ],
      "name": "Approval",
      "type": "event"
    },
    {
      "anonymous": false,
      "inputs": [
        {
          "indexed": true,
          "internalType": "bytes32",
          "name": "role",
          "type": "bytes32"
        },
        {
          "indexed": true,
          "internalType": "bytes32",
          "name": "previousAdminRole",
          "type": "bytes32"
        },
        {
          "indexed": true,
          "internalType": "bytes32",
          "name": "newAdminRole",
          "type": "bytes32"
        }
      ],
      "name": "RoleAdminChanged",
      "type": "event"
    },
    {
      "anonymous": false,
      "inputs": [
        {
          "indexed": true,
          "internalType": "bytes32",
          "name": "role",
          "type": "bytes32"
        },
        {
          "indexed": true,
          "internalType": "address",
          "name": "account",
          "type": "address"
        },
        {
          "indexed": true,
          "internalType": "address",
          "name": "sender",
          "type": "address"
        }
      ],
      "name": "RoleGranted",
      "type": "event"
    },
    {
      "anonymous": false,
      "inputs": [
        {
          "indexed": true,
          "internalType": "bytes32",
          "name": "role",
          "type": "bytes32"
        },
        {
          "indexed": true,
          "internalType": "address",
          "name": "account",
          "type": "address"
        },
        {
          "indexed": true,
          "internalType": "address",
          "name": "sender",
          "type": "address"
        }
      ],
      "name": "RoleRevoked",
      "type": "event"
    },
    {
      "anonymous": false,
      "inputs": [
        {
          "indexed": true,
          "internalType": "address",
          "name": "from",
          "type": "address"
        },
        {
          "indexed": true,
          "internalType": "address",
          "name": "to",
          "type": "address"
        },
        {
          "indexed": false,
          "internalType": "uint256",
          "name": "value",
          "type": "uint256"
        }
      ],
      "name": "Transfer",
      "type": "event"
    },
    {
      "anonymous": false,
      "inputs": [
        {
          "indexed": false,
          "internalType": "address",
          "name": "from",
          "type": "address"
        },
        {
          "indexed": false,
          "internalType": "uint256",
          "name": "amount",
          "type": "uint256"
        }
      ],
      "name": "burnToken",
      "type": "event"
    },
    {
      "anonymous": false,
      "inputs": [
        {
          "indexed": false,
          "internalType": "address",
          "name": "to",
          "type": "address"
        },
        {
          "indexed": false,
          "internalType": "uint256",
          "name": "amount",
          "type": "uint256"
        }
      ],
      "name": "mintToken",
      "type": "event"
    },
    {
      "inputs": [],
      "name": "BURNER_ROLE",
      "outputs": [
        {
          "internalType": "bytes32",
          "name": "",
          "type": "bytes32"
        }
      ],
      "stateMutability": "view",
      "type": "function"
    },
    {
      "inputs": [],
      "name": "DEFAULT_ADMIN_ROLE",
      "outputs": [
        {
          "internalType": "bytes32",
          "name": "",
          "type": "bytes32"
        }
      ],
      "stateMutability": "view",
      "type": "function"
    },
    {
      "inputs": [],
      "name": "MINTER_ROLE",
      "outputs": [
        {
          "internalType": "bytes32",
          "name": "",
          "type": "bytes32"
        }
      ],
      "stateMutability": "view",
      "type": "function"
    },
    {
      "inputs": [
        {
          "internalType": "address",
          "name": "owner",
          "type": "address"
        },
        {
          "internalType": "address",
          "name": "spender",
          "type": "address"
        }
      ],
      "name": "allowance",
      "outputs": [
        {
          "internalType": "uint256",
          "name": "",
          "type": "uint256"
        }
      ],
      "stateMutability": "view",
      "type": "function"
    },
    {
      "inputs": [
        {
          "internalType": "address",
          "name": "spender",
          "type": "address"
        },
        {
          "internalType": "uint256",
          "name": "amount",
          "type": "uint256"
        }
      ],
      "name": "approve",
      "outputs": [
        {
          "internalType": "bool",
          "name": "",
          "type": "bool"
        }
      ],
      "stateMutability": "nonpayable",
      "type": "function"
    },
    {
      "inputs": [
        {
          "internalType": "address",
          "name": "account",
          "type": "address"
        }
      ],
      "name": "balanceOf",
      "outputs": [
        {
          "internalType": "uint256",
          "name": "",
          "type": "uint256"
        }
      ],
      "stateMutability": "view",
      "type": "function"
    },
    {
      "inputs": [
        {
          "internalType": "address",
          "name": "spender",
          "type": "address"
        },
        {
          "internalType": "uint256",
          "name": "subtractedValue",
          "type": "uint256"
        }
      ],
      "name": "decreaseAllowance",
      "outputs": [
        {
          "internalType": "bool",
          "name": "",
          "type": "bool"
        }
      ],
      "stateMutability": "nonpayable",
      "type": "function"
    },
    {
      "inputs": [
        {
          "internalType": "bytes32",
          "name": "role",
          "type": "bytes32"
        }
      ],
      "name": "getRoleAdmin",
      "outputs": [
        {
          "internalType": "bytes32",
          "name": "",
          "type": "bytes32"
        }
      ],
      "stateMutability": "view",
      "type": "function"
    },
    {
      "inputs": [
        {
          "internalType": "bytes32",
          "name": "role",
          "type": "bytes32"
        },
        {
          "internalType": "address",
          "name": "account",
          "type": "address"
        }
      ],
      "name": "grantRole",
      "outputs": [],
      "stateMutability": "nonpayable",
      "type": "function"
    },
    {
      "inputs": [
        {
          "internalType": "bytes32",
          "name": "role",
          "type": "bytes32"
        },
        {
          "internalType": "address",
          "name": "account",
          "type": "address"
        }
      ],
      "name": "hasRole",
      "outputs": [
        {
          "internalType": "bool",
          "name": "",
          "type": "bool"
        }
      ],
      "stateMutability": "view",
      "type": "function"
    },
    {
      "inputs": [
        {
          "internalType": "address",
          "name": "spender",
          "type": "address"
        },
        {
          "internalType": "uint256",
          "name": "addedValue",
          "type": "uint256"
        }
      ],
      "name": "increaseAllowance",
      "outputs": [
        {
          "internalType": "bool",
          "name": "",
          "type": "bool"
        }
      ],
      "stateMutability": "nonpayable",
      "type": "function"
    },
    {
      "inputs": [],
      "name": "name",
      "outputs": [
        {
          "internalType": "string",
          "name": "",
          "type": "string"
        }
      ],
      "stateMutability": "view",
      "type": "function"
    },
    {
      "inputs": [
        {
          "internalType": "bytes32",
          "name": "role",
          "type": "bytes32"
        },
        {
          "internalType": "address",
          "name": "account",
          "type": "address"
        }
      ],
      "name": "renounceRole",
      "outputs": [],
      "stateMutability": "nonpayable",
      "type": "function"
    },
    {
      "inputs": [
        {
          "internalType": "bytes32",
          "name": "role",
          "type": "bytes32"
        },
        {
          "internalType": "address",
          "name": "account",
          "type": "address"
        }
      ],
      "name": "revokeRole",
      "outputs": [],
      "stateMutability": "nonpayable",
      "type": "function"
    },
    {
      "inputs": [
        {
          "internalType": "bytes4",
          "name": "interfaceId",
          "type": "bytes4"
        }
      ],
      "name": "supportsInterface",
      "outputs": [
        {
          "internalType": "bool",
          "name": "",
          "type": "bool"
        }
      ],
      "stateMutability": "view",
      "type": "function"
    },
    {
      "inputs": [],
      "name": "symbol",
      "outputs": [
        {
          "internalType": "string",
          "name": "",
          "type": "string"
        }
      ],
      "stateMutability": "view",
      "type": "function"
    },
    {
      "inputs": [],
      "name": "totalSupply",
      "outputs": [
        {
          "internalType": "uint256",
          "name": "",
          "type": "uint256"
        }
      ],
      "stateMutability": "view",
      "type": "function"
    },
    {
      "inputs": [
        {
          "internalType": "address",
          "name": "to",
          "type": "address"
        },
        {
          "internalType": "uint256",
          "name": "amount",
          "type": "uint256"
        }
      ],
      "name": "transfer",
      "outputs": [
        {
          "internalType": "bool",
          "name": "",
          "type": "bool"
        }
      ],
      "stateMutability": "nonpayable",
      "type": "function"
    },
    {
      "inputs": [
        {
          "internalType": "address",
          "name": "from",
          "type": "address"
        },
        {
          "internalType": "address",
          "name": "to",
          "type": "address"
        },
        {
          "internalType": "uint256",
          "name": "amount",
          "type": "uint256"
        }
      ],
      "name": "transferFrom",
      "outputs": [
        {
          "internalType": "bool",
          "name": "",
          "type": "bool"
        }
      ],
      "stateMutability": "nonpayable",
      "type": "function"
    },
    {
      "inputs": [
        {
          "internalType": "address",
          "name": "to",
          "type": "address"
        },
        {
          "internalType": "uint256",
          "name": "amount",
          "type": "uint256"
        }
      ],
      "name": "mint",
      "outputs": [],
      "stateMutability": "nonpayable",
      "type": "function"
    },
    {
      "inputs": [
        {
          "internalType": "address",
          "name": "from",
          "type": "address"
        },
        {
          "internalType": "uint256",
          "name": "amount",
          "type": "uint256"
        }
      ],
      "name": "burn",
      "outputs": [],
      "stateMutability": "nonpayable",
      "type": "function"
    },
    {
      "inputs": [],
      "name": "decimals",
      "outputs": [
        {
          "internalType": "uint8",
          "name": "",
          "type": "uint8"
        }
      ],
      "stateMutability": "view",
      "type": "function"
    }
  ],
  "bytecode": "0x60806040523480156200001157600080fd5b50604051620030673803806200306783398181016040528101906200003791906200050b565b8282816003908051906020019062000051929190620003c6565b5080600490805190602001906200006a929190620003c6565b505050620000ac3362000082620000ca60201b60201c565b60ff16600a62000093919062000744565b83620000a0919062000881565b620000d360201b60201c565b620000c16000801b336200024160201b60201c565b50505062000a90565b60006008905090565b600073ffffffffffffffffffffffffffffffffffffffff168273ffffffffffffffffffffffffffffffffffffffff16141562000146576040517f08c379a00000000000000000000000000000000000000000000000000000000081526004016200013d90620005dd565b60405180910390fd5b6200015a600083836200025760201b60201c565b80600260008282546200016e91906200068c565b92505081905550806000808473ffffffffffffffffffffffffffffffffffffffff1673ffffffffffffffffffffffffffffffffffffffff168152602001908152602001600020600082825401925050819055508173ffffffffffffffffffffffffffffffffffffffff16600073ffffffffffffffffffffffffffffffffffffffff167fddf252ad1be2c89b69c2b068fc378daa952ba7f163c4a11628f55a4df523b3ef83604051620002219190620005ff565b60405180910390a36200023d600083836200025c60201b60201c565b5050565b6200025382826200026160201b60201c565b5050565b505050565b505050565b6200027382826200035360201b60201c565b6200034f5760016005600084815260200190815260200160002060000160008373ffffffffffffffffffffffffffffffffffffffff1673ffffffffffffffffffffffffffffffffffffffff16815260200190815260200160002060006101000a81548160ff021916908315150217905550620002f4620003be60201b60201c565b73ffffffffffffffffffffffffffffffffffffffff168173ffffffffffffffffffffffffffffffffffffffff16837f2f8788117e7eff1d82e926ec794901d17c78024a50270940304540a733656f0d60405160405180910390a45b5050565b60006005600084815260200190815260200160002060000160008373ffffffffffffffffffffffffffffffffffffffff1673ffffffffffffffffffffffffffffffffffffffff16815260200190815260200160002060009054906101000a900460ff16905092915050565b600033905090565b828054620003d49062000922565b90600052602060002090601f016020900481019282620003f8576000855562000444565b82601f106200041357805160ff191683800117855562000444565b8280016001018555821562000444579182015b828111156200044357825182559160200191906001019062000426565b5b50905062000453919062000457565b5090565b5b808211156200047257600081600090555060010162000458565b5090565b60006200048d620004878462000645565b6200061c565b905082815260208101848484011115620004ac57620004ab62000a20565b5b620004b9848285620008ec565b509392505050565b600082601f830112620004d957620004d862000a1b565b5b8151620004eb84826020860162000476565b91505092915050565b600081519050620005058162000a76565b92915050565b60008060006060848603121562000527576200052662000a2a565b5b600084015167ffffffffffffffff81111562000548576200054762000a25565b5b6200055686828701620004c1565b935050602084015167ffffffffffffffff8111156200057a576200057962000a25565b5b6200058886828701620004c1565b92505060406200059b86828701620004f4565b9150509250925092565b6000620005b4601f836200067b565b9150620005c18262000a4d565b602082019050919050565b620005d781620008e2565b82525050565b60006020820190508181036000830152620005f881620005a5565b9050919050565b6000602082019050620006166000830184620005cc565b92915050565b6000620006286200063b565b905062000636828262000958565b919050565b6000604051905090565b600067ffffffffffffffff821115620006635762000662620009ec565b5b6200066e8262000a2f565b9050602081019050919050565b600082825260208201905092915050565b60006200069982620008e2565b9150620006a683620008e2565b9250827fffffffffffffffffffffffffffffffffffffffffffffffffffffffffffffffff03821115620006de57620006dd6200098e565b5b828201905092915050565b6000808291508390505b60018511156200073b578086048111156200071357620007126200098e565b5b6001851615620007235780820291505b8081029050620007338562000a40565b9450620006f3565b94509492505050565b60006200075182620008e2565b91506200075e83620008e2565b92506200078d7fffffffffffffffffffffffffffffffffffffffffffffffffffffffffffffffff848462000795565b905092915050565b600082620007a757600190506200087a565b81620007b757600090506200087a565b8160018114620007d05760028114620007db5762000811565b60019150506200087a565b60ff841115620007f057620007ef6200098e565b5b8360020a9150848211156200080a57620008096200098e565b5b506200087a565b5060208310610133831016604e8410600b84101617156200084b5782820a9050838111156200084557620008446200098e565b5b6200087a565b6200085a8484846001620006e9565b925090508184048111156200087457620008736200098e565b5b81810290505b9392505050565b60006200088e82620008e2565b91506200089b83620008e2565b9250817fffffffffffffffffffffffffffffffffffffffffffffffffffffffffffffffff0483118215151615620008d757620008d66200098e565b5b828202905092915050565b6000819050919050565b60005b838110156200090c578082015181840152602081019050620008ef565b838111156200091c576000848401525b50505050565b600060028204905060018216806200093b57607f821691505b60208210811415620009525762000951620009bd565b5b50919050565b620009638262000a2f565b810181811067ffffffffffffffff82111715620009855762000984620009ec565b5b80604052505050565b7f4e487b7100000000000000000000000000000000000000000000000000000000600052601160045260246000fd5b7f4e487b7100000000000000000000000000000000000000000000000000000000600052602260045260246000fd5b7f4e487b7100000000000000000000000000000000000000000000000000000000600052604160045260246000fd5b600080fd5b600080fd5b600080fd5b600080fd5b6000601f19601f8301169050919050565b60008160011c9050919050565b7f45524332303a206d696e7420746f20746865207a65726f206164647265737300600082015250565b62000a8181620008e2565b811462000a8d57600080fd5b50565b6125c78062000aa06000396000f3fe608060405234801561001057600080fd5b50600436106101425760003560e01c806340c10f19116100b8578063a217fddf1161007c578063a217fddf1461039d578063a457c2d7146103bb578063a9059cbb146103eb578063d53913931461041b578063d547741f14610439578063dd62ed3e1461045557610142565b806340c10f19146102e757806370a082311461030357806391d148541461033357806395d89b41146103635780639dc29fac1461038157610142565b8063248a9ca31161010a578063248a9ca314610213578063282c51f3146102435780632f2ff15d14610261578063313ce5671461027d57806336568abe1461029b57806339509351146102b757610142565b806301ffc9a71461014757806306fdde0314610177578063095ea7b31461019557806318160ddd146101c557806323b872dd146101e3575b600080fd5b610161600480360381019061015c91906119a1565b610485565b60405161016e9190611cd0565b60405180910390f35b61017f6104ff565b60405161018c9190611d06565b60405180910390f35b6101af60048036038101906101aa91906118f4565b610591565b6040516101bc9190611cd0565b60405180910390f35b6101cd6105b4565b6040516101da9190611ea8565b60405180910390f35b6101fd60048036038101906101f891906118a1565b6105be565b60405161020a9190611cd0565b60405180910390f35b61022d60048036038101906102289190611934565b6105ed565b60405161023a9190611ceb565b60405180910390f35b61024b61060d565b6040516102589190611ceb565b60405180910390f35b61027b60048036038101906102769190611961565b610631565b005b610285610652565b6040516102929190611ec3565b60405180910390f35b6102b560048036038101906102b09190611961565b61065b565b005b6102d160048036038101906102cc91906118f4565b6106de565b6040516102de9190611cd0565b60405180910390f35b61030160048036038101906102fc91906118f4565b610715565b005b61031d60048036038101906103189190611834565b610787565b60405161032a9190611ea8565b60405180910390f35b61034d60048036038101906103489190611961565b6107cf565b60405161035a9190611cd0565b60405180910390f35b61036b61083a565b6040516103789190611d06565b60405180910390f35b61039b600480360381019061039691906118f4565b6108cc565b005b6103a561093e565b6040516103b29190611ceb565b60405180910390f35b6103d560048036038101906103d091906118f4565b610945565b6040516103e29190611cd0565b60405180910390f35b610405600480360381019061040091906118f4565b6109bc565b6040516104129190611cd0565b60405180910390f35b6104236109df565b6040516104309190611ceb565b60405180910390f35b610453600480360381019061044e9190611961565b610a03565b005b61046f600480360381019061046a9190611861565b610a24565b60405161047c9190611ea8565b60405180910390f35b60007f7965db0b000000000000000000000000000000000000000000000000000000007bffffffffffffffffffffffffffffffffffffffffffffffffffffffff1916827bffffffffffffffffffffffffffffffffffffffffffffffffffffffff191614806104f857506104f782610aab565b5b9050919050565b60606003805461050e9061209d565b80601f016020809104026020016040519081016040528092919081815260200182805461053a9061209d565b80156105875780601f1061055c57610100808354040283529160200191610587565b820191906000526020600020905b81548152906001019060200180831161056a57829003601f168201915b5050505050905090565b60008061059c610b15565b90506105a9818585610b1d565b600191505092915050565b6000600254905090565b6000806105c9610b15565b90506105d6858285610ce8565b6105e1858585610d74565b60019150509392505050565b600060056000838152602001908152602001600020600101549050919050565b7f3c11d16cbaffd01df69ce1c404f6340ee057498f5f00246190ea54220576a84881565b61063a826105ed565b61064381610fec565b61064d8383611000565b505050565b60006008905090565b610663610b15565b73ffffffffffffffffffffffffffffffffffffffff168173ffffffffffffffffffffffffffffffffffffffff16146106d0576040517f08c379a00000000000000000000000000000000000000000000000000000000081526004016106c790611e68565b60405180910390fd5b6106da82826110e1565b5050565b6000806106e9610b15565b905061070a8185856106fb8589610a24565b6107059190611f05565b610b1d565b600191505092915050565b7f9f2df0fed2c77648de5860a4cc508cd0818c85b8b8a1ab4ceeef8d981c8956a661073f81610fec565b61074983836111c3565b7f79c65068f81072733b15ab3cba61b23110793f90ab099d228a414b186333a81e838360405161077a929190611ca7565b60405180910390a1505050565b60008060008373ffffffffffffffffffffffffffffffffffffffff1673ffffffffffffffffffffffffffffffffffffffff168152602001908152602001600020549050919050565b60006005600084815260200190815260200160002060000160008373ffffffffffffffffffffffffffffffffffffffff1673ffffffffffffffffffffffffffffffffffffffff16815260200190815260200160002060009054906101000a900460ff16905092915050565b6060600480546108499061209d565b80601f01602080910402602001604051908101604052809291908181526020018280546108759061209d565b80156108c25780601f10610897576101008083540402835291602001916108c2565b820191906000526020600020905b8154815290600101906020018083116108a557829003601f168201915b5050505050905090565b7f3c11d16cbaffd01df69ce1c404f6340ee057498f5f00246190ea54220576a8486108f681610fec565b610900838361131a565b7fd1df306c742159c188c29d2c167874a39b84fd0f96f794ad7ea53295680ec1c58383604051610931929190611ca7565b60405180910390a1505050565b6000801b81565b600080610950610b15565b9050600061095e8286610a24565b9050838110156109a3576040517f08c379a000000000000000000000000000000000000000000000000000000000815260040161099a90611e48565b60405180910390fd5b6109b08286868403610b1d565b60019250505092915050565b6000806109c7610b15565b90506109d4818585610d74565b600191505092915050565b7f9f2df0fed2c77648de5860a4cc508cd0818c85b8b8a1ab4ceeef8d981c8956a681565b610a0c826105ed565b610a1581610fec565b610a1f83836110e1565b505050565b6000600160008473ffffffffffffffffffffffffffffffffffffffff1673ffffffffffffffffffffffffffffffffffffffff16815260200190815260200160002060008373ffffffffffffffffffffffffffffffffffffffff1673ffffffffffffffffffffffffffffffffffffffff16815260200190815260200160002054905092915050565b60007f01ffc9a7000000000000000000000000000000000000000000000000000000007bffffffffffffffffffffffffffffffffffffffffffffffffffffffff1916827bffffffffffffffffffffffffffffffffffffffffffffffffffffffff1916149050919050565b600033905090565b600073ffffffffffffffffffffffffffffffffffffffff168373ffffffffffffffffffffffffffffffffffffffff161415610b8d576040517f08c379a0000000000000000000000000000000000000000000000000000000008152600401610b8490611e28565b60405180910390fd5b600073ffffffffffffffffffffffffffffffffffffffff168273ffffffffffffffffffffffffffffffffffffffff161415610bfd576040517f08c379a0000000000000000000000000000000000000000000000000000000008152600401610bf490611d88565b60405180910390fd5b80600160008573ffffffffffffffffffffffffffffffffffffffff1673ffffffffffffffffffffffffffffffffffffffff16815260200190815260200160002060008473ffffffffffffffffffffffffffffffffffffffff1673ffffffffffffffffffffffffffffffffffffffff168152602001908152602001600020819055508173ffffffffffffffffffffffffffffffffffffffff168373ffffffffffffffffffffffffffffffffffffffff167f8c5be1e5ebec7d5bd14f71427d1e84f3dd0314c0f7b2291e5b200ac8c7c3b92583604051610cdb9190611ea8565b60405180910390a3505050565b6000610cf48484610a24565b90507fffffffffffffffffffffffffffffffffffffffffffffffffffffffffffffffff8114610d6e5781811015610d60576040517f08c379a0000000000000000000000000000000000000000000000000000000008152600401610d5790611da8565b60405180910390fd5b610d6d8484848403610b1d565b5b50505050565b600073ffffffffffffffffffffffffffffffffffffffff168373ffffffffffffffffffffffffffffffffffffffff161415610de4576040517f08c379a0000000000000000000000000000000000000000000000000000000008152600401610ddb90611e08565b60405180910390fd5b600073ffffffffffffffffffffffffffffffffffffffff168273ffffffffffffffffffffffffffffffffffffffff161415610e54576040517f08c379a0000000000000000000000000000000000000000000000000000000008152600401610e4b90611d48565b60405180910390fd5b610e5f8383836114e8565b60008060008573ffffffffffffffffffffffffffffffffffffffff1673ffffffffffffffffffffffffffffffffffffffff16815260200190815260200160002054905081811015610ee5576040517f08c379a0000000000000000000000000000000000000000000000000000000008152600401610edc90611dc8565b60405180910390fd5b8181036000808673ffffffffffffffffffffffffffffffffffffffff1673ffffffffffffffffffffffffffffffffffffffff16815260200190815260200160002081905550816000808573ffffffffffffffffffffffffffffffffffffffff1673ffffffffffffffffffffffffffffffffffffffff168152602001908152602001600020600082825401925050819055508273ffffffffffffffffffffffffffffffffffffffff168473ffffffffffffffffffffffffffffffffffffffff167fddf252ad1be2c89b69c2b068fc378daa952ba7f163c4a11628f55a4df523b3ef84604051610fd39190611ea8565b60405180910390a3610fe68484846114ed565b50505050565b610ffd81610ff8610b15565b6114f2565b50565b61100a82826107cf565b6110dd5760016005600084815260200190815260200160002060000160008373ffffffffffffffffffffffffffffffffffffffff1673ffffffffffffffffffffffffffffffffffffffff16815260200190815260200160002060006101000a81548160ff021916908315150217905550611082610b15565b73ffffffffffffffffffffffffffffffffffffffff168173ffffffffffffffffffffffffffffffffffffffff16837f2f8788117e7eff1d82e926ec794901d17c78024a50270940304540a733656f0d60405160405180910390a45b5050565b6110eb82826107cf565b156111bf5760006005600084815260200190815260200160002060000160008373ffffffffffffffffffffffffffffffffffffffff1673ffffffffffffffffffffffffffffffffffffffff16815260200190815260200160002060006101000a81548160ff021916908315150217905550611164610b15565b73ffffffffffffffffffffffffffffffffffffffff168173ffffffffffffffffffffffffffffffffffffffff16837ff6391f5c32d9c69d2a47ea670b442974b53935d1edc7fd64eb21e047a839171b60405160405180910390a45b5050565b600073ffffffffffffffffffffffffffffffffffffffff168273ffffffffffffffffffffffffffffffffffffffff161415611233576040517f08c379a000000000000000000000000000000000000000000000000000000000815260040161122a90611e88565b60405180910390fd5b61123f600083836114e8565b80600260008282546112519190611f05565b92505081905550806000808473ffffffffffffffffffffffffffffffffffffffff1673ffffffffffffffffffffffffffffffffffffffff168152602001908152602001600020600082825401925050819055508173ffffffffffffffffffffffffffffffffffffffff16600073ffffffffffffffffffffffffffffffffffffffff167fddf252ad1be2c89b69c2b068fc378daa952ba7f163c4a11628f55a4df523b3ef836040516113029190611ea8565b60405180910390a3611316600083836114ed565b5050565b600073ffffffffffffffffffffffffffffffffffffffff168273ffffffffffffffffffffffffffffffffffffffff16141561138a576040517f08c379a000000000000000000000000000000000000000000000000000000000815260040161138190611de8565b60405180910390fd5b611396826000836114e8565b60008060008473ffffffffffffffffffffffffffffffffffffffff1673ffffffffffffffffffffffffffffffffffffffff1681526020019081526020016000205490508181101561141c576040517f08c379a000000000000000000000000000000000000000000000000000000000815260040161141390611d68565b60405180910390fd5b8181036000808573ffffffffffffffffffffffffffffffffffffffff1673ffffffffffffffffffffffffffffffffffffffff1681526020019081526020016000208190555081600260008282540392505081905550600073ffffffffffffffffffffffffffffffffffffffff168373ffffffffffffffffffffffffffffffffffffffff167fddf252ad1be2c89b69c2b068fc378daa952ba7f163c4a11628f55a4df523b3ef846040516114cf9190611ea8565b60405180910390a36114e3836000846114ed565b505050565b505050565b505050565b6114fc82826107cf565b6115735761150981611577565b6115178360001c60206115a4565b604051602001611528929190611c6d565b6040516020818303038152906040526040517f08c379a000000000000000000000000000000000000000000000000000000000815260040161156a9190611d06565b60405180910390fd5b5050565b606061159d8273ffffffffffffffffffffffffffffffffffffffff16601460ff166115a4565b9050919050565b6060600060028360026115b79190611f5b565b6115c19190611f05565b67ffffffffffffffff8111156115da576115d961215c565b5b6040519080825280601f01601f19166020018201604052801561160c5781602001600182028036833780820191505090505b5090507f3000000000000000000000000000000000000000000000000000000000000000816000815181106116445761164361212d565b5b60200101907effffffffffffffffffffffffffffffffffffffffffffffffffffffffffffff1916908160001a9053507f7800000000000000000000000000000000000000000000000000000000000000816001815181106116a8576116a761212d565b5b60200101907effffffffffffffffffffffffffffffffffffffffffffffffffffffffffffff1916908160001a905350600060018460026116e89190611f5b565b6116f29190611f05565b90505b6001811115611792577f3031323334353637383961626364656600000000000000000000000000000000600f8616601081106117345761173361212d565b5b1a60f81b82828151811061174b5761174a61212d565b5b60200101907effffffffffffffffffffffffffffffffffffffffffffffffffffffffffffff1916908160001a905350600485901c94508061178b90612073565b90506116f5565b50600084146117d6576040517f08c379a00000000000000000000000000000000000000000000000000000000081526004016117cd90611d28565b60405180910390fd5b8091505092915050565b6000813590506117ef81612535565b92915050565b6000813590506118048161254c565b92915050565b60008135905061181981612563565b92915050565b60008135905061182e8161257a565b92915050565b60006020828403121561184a5761184961218b565b5b6000611858848285016117e0565b91505092915050565b600080604083850312156118785761187761218b565b5b6000611886858286016117e0565b9250506020611897858286016117e0565b9150509250929050565b6000806000606084860312156118ba576118b961218b565b5b60006118c8868287016117e0565b93505060206118d9868287016117e0565b92505060406118ea8682870161181f565b9150509250925092565b6000806040838503121561190b5761190a61218b565b5b6000611919858286016117e0565b925050602061192a8582860161181f565b9150509250929050565b60006020828403121561194a5761194961218b565b5b6000611958848285016117f5565b91505092915050565b600080604083850312156119785761197761218b565b5b6000611986858286016117f5565b9250506020611997858286016117e0565b9150509250929050565b6000602082840312156119b7576119b661218b565b5b60006119c58482850161180a565b91505092915050565b6119d781611fb5565b82525050565b6119e681611fc7565b82525050565b6119f581611fd3565b82525050565b6000611a0682611ede565b611a108185611ee9565b9350611a20818560208601612040565b611a2981612190565b840191505092915050565b6000611a3f82611ede565b611a498185611efa565b9350611a59818560208601612040565b80840191505092915050565b6000611a72602083611ee9565b9150611a7d826121a1565b602082019050919050565b6000611a95602383611ee9565b9150611aa0826121ca565b604082019050919050565b6000611ab8602283611ee9565b9150611ac382612219565b604082019050919050565b6000611adb602283611ee9565b9150611ae682612268565b604082019050919050565b6000611afe601d83611ee9565b9150611b09826122b7565b602082019050919050565b6000611b21602683611ee9565b9150611b2c826122e0565b604082019050919050565b6000611b44602183611ee9565b9150611b4f8261232f565b604082019050919050565b6000611b67602583611ee9565b9150611b728261237e565b604082019050919050565b6000611b8a602483611ee9565b9150611b95826123cd565b604082019050919050565b6000611bad601783611efa565b9150611bb88261241c565b601782019050919050565b6000611bd0602583611ee9565b9150611bdb82612445565b604082019050919050565b6000611bf3601183611efa565b9150611bfe82612494565b601182019050919050565b6000611c16602f83611ee9565b9150611c21826124bd565b604082019050919050565b6000611c39601f83611ee9565b9150611c448261250c565b602082019050919050565b611c5881612029565b82525050565b611c6781612033565b82525050565b6000611c7882611ba0565b9150611c848285611a34565b9150611c8f82611be6565b9150611c9b8284611a34565b91508190509392505050565b6000604082019050611cbc60008301856119ce565b611cc96020830184611c4f565b9392505050565b6000602082019050611ce560008301846119dd565b92915050565b6000602082019050611d0060008301846119ec565b92915050565b60006020820190508181036000830152611d2081846119fb565b905092915050565b60006020820190508181036000830152611d4181611a65565b9050919050565b60006020820190508181036000830152611d6181611a88565b9050919050565b60006020820190508181036000830152611d8181611aab565b9050919050565b60006020820190508181036000830152611da181611ace565b9050919050565b60006020820190508181036000830152611dc181611af1565b9050919050565b60006020820190508181036000830152611de181611b14565b9050919050565b60006020820190508181036000830152611e0181611b37565b9050919050565b60006020820190508181036000830152611e2181611b5a565b9050919050565b60006020820190508181036000830152611e4181611b7d565b9050919050565b60006020820190508181036000830152611e6181611bc3565b9050919050565b60006020820190508181036000830152611e8181611c09565b9050919050565b60006020820190508181036000830152611ea181611c2c565b9050919050565b6000602082019050611ebd6000830184611c4f565b92915050565b6000602082019050611ed86000830184611c5e565b92915050565b600081519050919050565b600082825260208201905092915050565b600081905092915050565b6000611f1082612029565b9150611f1b83612029565b9250827fffffffffffffffffffffffffffffffffffffffffffffffffffffffffffffffff03821115611f5057611f4f6120cf565b5b828201905092915050565b6000611f6682612029565b9150611f7183612029565b9250817fffffffffffffffffffffffffffffffffffffffffffffffffffffffffffffffff0483118215151615611faa57611fa96120cf565b5b828202905092915050565b6000611fc082612009565b9050919050565b60008115159050919050565b6000819050919050565b60007fffffffff0000000000000000000000000000000000000000000000000000000082169050919050565b600073ffffffffffffffffffffffffffffffffffffffff82169050919050565b6000819050919050565b600060ff82169050919050565b60005b8381101561205e578082015181840152602081019050612043565b8381111561206d576000848401525b50505050565b600061207e82612029565b91506000821415612092576120916120cf565b5b600182039050919050565b600060028204905060018216806120b557607f821691505b602082108114156120c9576120c86120fe565b5b50919050565b7f4e487b7100000000000000000000000000000000000000000000000000000000600052601160045260246000fd5b7f4e487b7100000000000000000000000000000000000000000000000000000000600052602260045260246000fd5b7f4e487b7100000000000000000000000000000000000000000000000000000000600052603260045260246000fd5b7f4e487b7100000000000000000000000000000000000000000000000000000000600052604160045260246000fd5b600080fd5b6000601f19601f8301169050919050565b7f537472696e67733a20686578206c656e67746820696e73756666696369656e74600082015250565b7f45524332303a207472616e7366657220746f20746865207a65726f206164647260008201527f6573730000000000000000000000000000000000000000000000000000000000602082015250565b7f45524332303a206275726e20616d6f756e7420657863656564732062616c616e60008201527f6365000000000000000000000000000000000000000000000000000000000000602082015250565b7f45524332303a20617070726f766520746f20746865207a65726f20616464726560008201527f7373000000000000000000000000000000000000000000000000000000000000602082015250565b7f45524332303a20696e73756666696369656e7420616c6c6f77616e6365000000600082015250565b7f45524332303a207472616e7366657220616d6f756e742065786365656473206260008201527f616c616e63650000000000000000000000000000000000000000000000000000602082015250565b7f45524332303a206275726e2066726f6d20746865207a65726f2061646472657360008201527f7300000000000000000000000000000000000000000000000000000000000000602082015250565b7f45524332303a207472616e736665722066726f6d20746865207a65726f20616460008201527f6472657373000000000000000000000000000000000000000000000000000000602082015250565b7f45524332303a20617070726f76652066726f6d20746865207a65726f2061646460008201527f7265737300000000000000000000000000000000000000000000000000000000602082015250565b7f416363657373436f6e74726f6c3a206163636f756e7420000000000000000000600082015250565b7f45524332303a2064656372656173656420616c6c6f77616e63652062656c6f7760008201527f207a65726f000000000000000000000000000000000000000000000000000000602082015250565b7f206973206d697373696e6720726f6c6520000000000000000000000000000000600082015250565b7f416363657373436f6e74726f6c3a2063616e206f6e6c792072656e6f756e636560008201527f20726f6c657320666f722073656c660000000000000000000000000000000000602082015250565b7f45524332303a206d696e7420746f20746865207a65726f206164647265737300600082015250565b61253e81611fb5565b811461254957600080fd5b50565b61255581611fd3565b811461256057600080fd5b50565b61256c81611fdd565b811461257757600080fd5b50565b61258381612029565b811461258e57600080fd5b5056fea2646970667358221220e367a189b45cc1414b81fbd7b4ad2f3b83ae6f103ff358c8a6120ceae5168f7d64736f6c63430008070033",
  "immutableReferences": {},
  "source": "pragma solidity >=0.8.0 <0.9.0;\n//SPDX-License-Identifier: MIT\n\nimport \"@openzeppelin/contracts/token/ERC20/ERC20.sol\";\nimport \"@openzeppelin/contracts/access/AccessControl.sol\";\n\ncontract sAsset is ERC20, AccessControl {\n    // Create a new role identifier for the minter / burner role\n    bytes32 public constant MINTER_ROLE = keccak256(\"MINTER_ROLE\");\n    bytes32 public constant BURNER_ROLE = keccak256(\"BURNER_ROLE\");    \n    /**\n     * @dev Constructor that gives msg.sender all of existing tokens.\n     */\n    constructor(\n        string memory name,\n        string memory symbol,\n        uint256 initialSupply\n    ) ERC20(name, symbol) {\n        _mint(msg.sender, initialSupply * (10 ** uint256(decimals())));\n        // Grant the contract deployer the default admin role: it will be able\n        // to grant and revoke any roles\n        _setupRole(DEFAULT_ADMIN_ROLE, msg.sender);\n    }\n\n    event mintToken(address to, uint256 amount);\n    event burnToken(address from, uint256 amount);\n\n\n    function mint(address to, uint256 amount) external onlyRole(MINTER_ROLE) {        \n        _mint(to, amount);\n        emit mintToken(to, amount);\n    }\n\n    function burn(address from, uint256 amount) external onlyRole(BURNER_ROLE) {        \n        _burn(from, amount);\n        emit burnToken(from, amount);\n    }\n\n    function decimals() public view virtual override returns (uint8) {\n        return 8;\n    }\n}",
  "sourcePath": "/Users/ethanpuckett/COS-ECE-473-Spring-2025-Final/Assignments/Assignment4/contracts/sAsset.sol",
  "compiler": {
    "name": "solc",
    "version": "0.8.7+commit.e28d00a7.Emscripten.clang"
  },
  "schemaVersion": "3.4.16",
  "updatedAt": "2025-03-19T19:35:33.383Z",
  "devdoc": {
    "kind": "dev",
    "methods": {
      "allowance(address,address)": {
        "details": "See {IERC20-allowance}."
      },
      "approve(address,uint256)": {
        "details": "See {IERC20-approve}. NOTE: If `amount` is the maximum `uint256`, the allowance is not updated on `transferFrom`. This is semantically equivalent to an infinite approval. Requirements: - `spender` cannot be the zero address."
      },
      "balanceOf(address)": {
        "details": "See {IERC20-balanceOf}."
      },
      "constructor": {
        "details": "Constructor that gives msg.sender all of existing tokens."
      },
      "decimals()": {
        "details": "Returns the number of decimals used to get its user representation. For example, if `decimals` equals `2`, a balance of `505` tokens should be displayed to a user as `5.05` (`505 / 10 ** 2`). Tokens usually opt for a value of 18, imitating the relationship between Ether and Wei. This is the default value returned by this function, unless it's overridden. NOTE: This information is only used for _display_ purposes: it in no way affects any of the arithmetic of the contract, including {IERC20-balanceOf} and {IERC20-transfer}."
      },
      "decreaseAllowance(address,uint256)": {
        "details": "Atomically decreases the allowance granted to `spender` by the caller. This is an alternative to {approve} that can be used as a mitigation for problems described in {IERC20-approve}. Emits an {Approval} event indicating the updated allowance. Requirements: - `spender` cannot be the zero address. - `spender` must have allowance for the caller of at least `subtractedValue`."
      },
      "getRoleAdmin(bytes32)": {
        "details": "Returns the admin role that controls `role`. See {grantRole} and {revokeRole}. To change a role's admin, use {_setRoleAdmin}."
      },
      "grantRole(bytes32,address)": {
        "details": "Grants `role` to `account`. If `account` had not been already granted `role`, emits a {RoleGranted} event. Requirements: - the caller must have ``role``'s admin role. May emit a {RoleGranted} event."
      },
      "hasRole(bytes32,address)": {
        "details": "Returns `true` if `account` has been granted `role`."
      },
      "increaseAllowance(address,uint256)": {
        "details": "Atomically increases the allowance granted to `spender` by the caller. This is an alternative to {approve} that can be used as a mitigation for problems described in {IERC20-approve}. Emits an {Approval} event indicating the updated allowance. Requirements: - `spender` cannot be the zero address."
      },
      "name()": {
        "details": "Returns the name of the token."
      },
      "renounceRole(bytes32,address)": {
        "details": "Revokes `role` from the calling account. Roles are often managed via {grantRole} and {revokeRole}: this function's purpose is to provide a mechanism for accounts to lose their privileges if they are compromised (such as when a trusted device is misplaced). If the calling account had been revoked `role`, emits a {RoleRevoked} event. Requirements: - the caller must be `account`. May emit a {RoleRevoked} event."
      },
      "revokeRole(bytes32,address)": {
        "details": "Revokes `role` from `account`. If `account` had been granted `role`, emits a {RoleRevoked} event. Requirements: - the caller must have ``role``'s admin role. May emit a {RoleRevoked} event."
      },
      "supportsInterface(bytes4)": {
        "details": "See {IERC165-supportsInterface}."
      },
      "symbol()": {
        "details": "Returns the symbol of the token, usually a shorter version of the name."
      },
      "totalSupply()": {
        "details": "See {IERC20-totalSupply}."
      },
      "transfer(address,uint256)": {
        "details": "See {IERC20-transfer}. Requirements: - `to` cannot be the zero address. - the caller must have a balance of at least `amount`."
      },
      "transferFrom(address,address,uint256)": {
        "details": "See {IERC20-transferFrom}. Emits an {Approval} event indicating the updated allowance. This is not required by the EIP. See the note at the beginning of {ERC20}. NOTE: Does not update the allowance if the current allowance is the maximum `uint256`. Requirements: - `from` and `to` cannot be the zero address. - `from` must have a balance of at least `amount`. - the caller must have allowance for ``from``'s tokens of at least `amount`."
      }
    },
    "version": 1
  },
  "userdoc": {
    "kind": "user",
    "methods": {},
    "version": 1
  }
}