{
  "contractName": "Swap",
  "abi": [
    {
      "inputs": [
        {
          "internalType": "address",
          "name": "addr0",
          "type": "address"
        },
        {
          "internalType": "address",
          "name": "addr1",
          "type": "address"
        }
      ],
      "stateMutability": "nonpayable",
      "type": "constructor"
    },
    {
      "anonymous": false,
      "inputs": [
        {
          "indexed": true,
          "internalType": "address",
          "name": "previousOwner",
          "type": "address"
        },
        {
          "indexed": true,
          "internalType": "address",
          "name": "newOwner",
          "type": "address"
        }
      ],
      "name": "OwnershipTransferred",
      "type": "event"
    },
    {
      "inputs": [],
      "name": "owner",
      "outputs": [
        {
          "internalType": "address",
          "name": "",
          "type": "address"
        }
      ],
      "stateMutability": "view",
      "type": "function",
      "constant": true
    },
    {
      "inputs": [],
      "name": "renounceOwnership",
      "outputs": [],
      "stateMutability": "nonpayable",
      "type": "function"
    },
    {
      "inputs": [],
      "name": "totalShares",
      "outputs": [
        {
          "internalType": "uint256",
          "name": "",
          "type": "uint256"
        }
      ],
      "stateMutability": "view",
      "type": "function",
      "constant": true
    },
    {
      "inputs": [
        {
          "internalType": "address",
          "name": "newOwner",
          "type": "address"
        }
      ],
      "name": "transferOwnership",
      "outputs": [],
      "stateMutability": "nonpayable",
      "type": "function"
    },
    {
      "inputs": [
        {
          "internalType": "uint256",
          "name": "token0Amount",
          "type": "uint256"
        },
        {
          "internalType": "uint256",
          "name": "token1Amount",
          "type": "uint256"
        }
      ],
      "name": "init",
      "outputs": [],
      "stateMutability": "nonpayable",
      "type": "function"
    },
    {
      "inputs": [],
      "name": "getReserves",
      "outputs": [
        {
          "internalType": "uint256",
          "name": "",
          "type": "uint256"
        },
        {
          "internalType": "uint256",
          "name": "",
          "type": "uint256"
        }
      ],
      "stateMutability": "view",
      "type": "function",
      "constant": true
    },
    {
      "inputs": [],
      "name": "getTokens",
      "outputs": [
        {
          "internalType": "address",
          "name": "",
          "type": "address"
        },
        {
          "internalType": "address",
          "name": "",
          "type": "address"
        }
      ],
      "stateMutability": "view",
      "type": "function",
      "constant": true
    },
    {
      "inputs": [
        {
          "internalType": "address",
          "name": "LP",
          "type": "address"
        }
      ],
      "name": "getShares",
      "outputs": [
        {
          "internalType": "uint256",
          "name": "",
          "type": "uint256"
        }
      ],
      "stateMutability": "view",
      "type": "function",
      "constant": true
    },
    {
      "inputs": [
        {
          "internalType": "uint256",
          "name": "token0Amount",
          "type": "uint256"
        }
      ],
      "name": "addLiquidity",
      "outputs": [],
      "stateMutability": "nonpayable",
      "type": "function"
    },
    {
      "inputs": [
        {
          "internalType": "uint256",
          "name": "withdrawShares",
          "type": "uint256"
        }
      ],
      "name": "removeLiquidity",
      "outputs": [],
      "stateMutability": "nonpayable",
      "type": "function"
    },
    {
      "inputs": [
        {
          "internalType": "uint256",
          "name": "token0Amount",
          "type": "uint256"
        }
      ],
      "name": "token0To1",
      "outputs": [],
      "stateMutability": "nonpayable",
      "type": "function"
    },
    {
      "inputs": [
        {
          "internalType": "uint256",
          "name": "token1Amount",
          "type": "uint256"
        }
      ],
      "name": "token1To0",
      "outputs": [],
      "stateMutability": "nonpayable",
      "type": "function"
    }
  ],
  "bytecode": "0x60806040523480156200001157600080fd5b50604051620022be380380620022be8339818101604052810190620000379190620001c4565b620000576200004b620000e160201b60201c565b620000e960201b60201c565b81600160006101000a81548173ffffffffffffffffffffffffffffffffffffffff021916908373ffffffffffffffffffffffffffffffffffffffff16021790555080600260006101000a81548173ffffffffffffffffffffffffffffffffffffffff021916908373ffffffffffffffffffffffffffffffffffffffff16021790555050506200025e565b600033905090565b60008060009054906101000a900473ffffffffffffffffffffffffffffffffffffffff169050816000806101000a81548173ffffffffffffffffffffffffffffffffffffffff021916908373ffffffffffffffffffffffffffffffffffffffff1602179055508173ffffffffffffffffffffffffffffffffffffffff168173ffffffffffffffffffffffffffffffffffffffff167f8be0079c531659141344cd1fd0a4f28419497f9722a3daafe3b4186f6b6457e060405160405180910390a35050565b600081519050620001be8162000244565b92915050565b60008060408385031215620001de57620001dd6200023f565b5b6000620001ee85828601620001ad565b92505060206200020185828601620001ad565b9150509250929050565b600062000218826200021f565b9050919050565b600073ffffffffffffffffffffffffffffffffffffffff82169050919050565b600080fd5b6200024f816200020b565b81146200025b57600080fd5b50565b612050806200026e6000396000f3fe608060405234801561001057600080fd5b50600436106100b45760003560e01c80639c8f9f23116100715780639c8f9f2314610156578063a5843f0814610172578063aa6ca8081461018e578063ad3bd45c146101ad578063f04da65b146101c9578063f2fde38b146101f9576100b4565b80630902f1ac146100b957806326ef80c9146100d85780633a98ef39146100f457806351c6590a14610112578063715018a61461012e5780638da5cb5b14610138575b600080fd5b6100c1610215565b6040516100cf929190611b51565b60405180910390f35b6100f260048036038101906100ed919061165d565b610226565b005b6100fc610529565b6040516101099190611b36565b60405180910390f35b61012c6004803603810190610127919061165d565b61052f565b005b610136610954565b005b610140610968565b60405161014d91906118d2565b60405180910390f35b610170600480360381019061016b919061165d565b610991565b005b61018c6004803603810190610187919061168a565b610d4f565b005b610196610fdf565b6040516101a49291906118ed565b60405180910390f35b6101c760048036038101906101c2919061165d565b611030565b005b6101e360048036038101906101de9190611603565b611333565b6040516101f09190611b36565b60405180910390f35b610213600480360381019061020e9190611603565b61137c565b005b600080600354600454915091509091565b60008111610269576040517f08c379a000000000000000000000000000000000000000000000000000000000815260040161026090611996565b60405180910390fd5b60006103e860038361027b9190611c12565b6102859190611be1565b9050600081836102959190611c6c565b90506000816003546102a79190611b8b565b6004546003546102b79190611c12565b6102c19190611be1565b6004546102ce9190611c6c565b905060008111610313576040517f08c379a000000000000000000000000000000000000000000000000000000000815260040161030a906119b6565b60405180910390fd5b600160009054906101000a900473ffffffffffffffffffffffffffffffffffffffff1673ffffffffffffffffffffffffffffffffffffffff166323b872dd3330876040518463ffffffff1660e01b815260040161037293929190611916565b602060405180830381600087803b15801561038c57600080fd5b505af11580156103a0573d6000803e3d6000fd5b505050506040513d601f19601f820116820180604052508101906103c49190611630565b610403576040517f08c379a00000000000000000000000000000000000000000000000000000000081526004016103fa90611b16565b60405180910390fd5b600260009054906101000a900473ffffffffffffffffffffffffffffffffffffffff1673ffffffffffffffffffffffffffffffffffffffff1663a9059cbb33836040518363ffffffff1660e01b815260040161046092919061194d565b602060405180830381600087803b15801561047a57600080fd5b505af115801561048e573d6000803e3d6000fd5b505050506040513d601f19601f820116820180604052508101906104b29190611630565b6104f1576040517f08c379a00000000000000000000000000000000000000000000000000000000081526004016104e890611a36565b60405180910390fd5b83600360008282546105039190611b8b565b92505081905550806004600082825461051c9190611c6c565b9250508190555050505050565b60065481565b60008111610572576040517f08c379a000000000000000000000000000000000000000000000000000000000815260040161056990611996565b60405180910390fd5b6000600654116105b7576040517f08c379a00000000000000000000000000000000000000000000000000000000081526004016105ae90611af6565b60405180910390fd5b60006003541180156105cb57506000600454115b61060a576040517f08c379a000000000000000000000000000000000000000000000000000000000815260040161060190611ab6565b60405180910390fd5b60006003548260045461061d9190611c12565b6106279190611be1565b90506000811161066c576040517f08c379a000000000000000000000000000000000000000000000000000000000815260040161066390611a96565b60405180910390fd5b600160009054906101000a900473ffffffffffffffffffffffffffffffffffffffff1673ffffffffffffffffffffffffffffffffffffffff166323b872dd3330856040518463ffffffff1660e01b81526004016106cb93929190611916565b602060405180830381600087803b1580156106e557600080fd5b505af11580156106f9573d6000803e3d6000fd5b505050506040513d601f19601f8201168201806040525081019061071d9190611630565b61075c576040517f08c379a000000000000000000000000000000000000000000000000000000000815260040161075390611b16565b60405180910390fd5b600260009054906101000a900473ffffffffffffffffffffffffffffffffffffffff1673ffffffffffffffffffffffffffffffffffffffff166323b872dd3330846040518463ffffffff1660e01b81526004016107bb93929190611916565b602060405180830381600087803b1580156107d557600080fd5b505af11580156107e9573d6000803e3d6000fd5b505050506040513d601f19601f8201168201806040525081019061080d9190611630565b61084c576040517f08c379a000000000000000000000000000000000000000000000000000000000815260040161084390611a36565b60405180910390fd5b60006003546006548461085f9190611c12565b6108699190611be1565b9050600081116108ae576040517f08c379a00000000000000000000000000000000000000000000000000000000081526004016108a590611ad6565b60405180910390fd5b82600360008282546108c09190611b8b565b9250508190555081600460008282546108d99190611b8b565b9250508190555080600660008282546108f29190611b8b565b9250508190555080600560003373ffffffffffffffffffffffffffffffffffffffff1673ffffffffffffffffffffffffffffffffffffffff16815260200190815260200160002060008282546109489190611b8b565b92505081905550505050565b61095c611400565b610966600061147e565b565b60008060009054906101000a900473ffffffffffffffffffffffffffffffffffffffff16905090565b6000811180156109e05750600560003373ffffffffffffffffffffffffffffffffffffffff1673ffffffffffffffffffffffffffffffffffffffff168152602001908152602001600020548111155b610a1f576040517f08c379a0000000000000000000000000000000000000000000000000000000008152600401610a16906119f6565b60405180910390fd5b600060065482600354610a329190611c12565b610a3c9190611be1565b9050600060065483600454610a519190611c12565b610a5b9190611be1565b9050600082118015610a6d5750600081115b610aac576040517f08c379a0000000000000000000000000000000000000000000000000000000008152600401610aa390611a56565b60405180910390fd5b82600560003373ffffffffffffffffffffffffffffffffffffffff1673ffffffffffffffffffffffffffffffffffffffff1681526020019081526020016000206000828254610afb9190611c6c565b925050819055508260066000828254610b149190611c6c565b9250508190555060006006541415610b3b5760006003819055506000600481905550610b6e565b8160036000828254610b4d9190611c6c565b925050819055508060046000828254610b669190611c6c565b925050819055505b600160009054906101000a900473ffffffffffffffffffffffffffffffffffffffff1673ffffffffffffffffffffffffffffffffffffffff1663a9059cbb33846040518363ffffffff1660e01b8152600401610bcb92919061194d565b602060405180830381600087803b158015610be557600080fd5b505af1158015610bf9573d6000803e3d6000fd5b505050506040513d601f19601f82011682018060405250810190610c1d9190611630565b610c5c576040517f08c379a0000000000000000000000000000000000000000000000000000000008152600401610c5390611b16565b60405180910390fd5b600260009054906101000a900473ffffffffffffffffffffffffffffffffffffffff1673ffffffffffffffffffffffffffffffffffffffff1663a9059cbb33836040518363ffffffff1660e01b8152600401610cb992919061194d565b602060405180830381600087803b158015610cd357600080fd5b505af1158015610ce7573d6000803e3d6000fd5b505050506040513d601f19601f82011682018060405250810190610d0b9190611630565b610d4a576040517f08c379a0000000000000000000000000000000000000000000000000000000008152600401610d4190611a36565b60405180910390fd5b505050565b610d57611400565b6000600354148015610d6b57506000600454145b610daa576040517f08c379a0000000000000000000000000000000000000000000000000000000008152600401610da190611a76565b60405180910390fd5b600082118015610dba5750600081115b610df9576040517f08c379a0000000000000000000000000000000000000000000000000000000008152600401610df0906119d6565b60405180910390fd5b600160009054906101000a900473ffffffffffffffffffffffffffffffffffffffff1673ffffffffffffffffffffffffffffffffffffffff166323b872dd3330856040518463ffffffff1660e01b8152600401610e5893929190611916565b602060405180830381600087803b158015610e7257600080fd5b505af1158015610e86573d6000803e3d6000fd5b505050506040513d601f19601f82011682018060405250810190610eaa9190611630565b610eb357600080fd5b600260009054906101000a900473ffffffffffffffffffffffffffffffffffffffff1673ffffffffffffffffffffffffffffffffffffffff166323b872dd3330846040518463ffffffff1660e01b8152600401610f1293929190611916565b602060405180830381600087803b158015610f2c57600080fd5b505af1158015610f40573d6000803e3d6000fd5b505050506040513d601f19601f82011682018060405250810190610f649190611630565b610f6d57600080fd5b8160038190555080600481905550610f8f8183610f8a9190611c12565b611542565b600681905550600654600560003373ffffffffffffffffffffffffffffffffffffffff1673ffffffffffffffffffffffffffffffffffffffff168152602001908152602001600020819055505050565b600080600160009054906101000a900473ffffffffffffffffffffffffffffffffffffffff16600260009054906101000a900473ffffffffffffffffffffffffffffffffffffffff16915091509091565b60008111611073576040517f08c379a000000000000000000000000000000000000000000000000000000000815260040161106a90611996565b60405180910390fd5b60006103e86003836110859190611c12565b61108f9190611be1565b90506000818361109f9190611c6c565b90506000816004546110b19190611b8b565b6004546003546110c19190611c12565b6110cb9190611be1565b6003546110d89190611c6c565b90506000811161111d576040517f08c379a0000000000000000000000000000000000000000000000000000000008152600401611114906119b6565b60405180910390fd5b600260009054906101000a900473ffffffffffffffffffffffffffffffffffffffff1673ffffffffffffffffffffffffffffffffffffffff166323b872dd3330876040518463ffffffff1660e01b815260040161117c93929190611916565b602060405180830381600087803b15801561119657600080fd5b505af11580156111aa573d6000803e3d6000fd5b505050506040513d601f19601f820116820180604052508101906111ce9190611630565b61120d576040517f08c379a000000000000000000000000000000000000000000000000000000000815260040161120490611a36565b60405180910390fd5b600160009054906101000a900473ffffffffffffffffffffffffffffffffffffffff1673ffffffffffffffffffffffffffffffffffffffff1663a9059cbb33836040518363ffffffff1660e01b815260040161126a92919061194d565b602060405180830381600087803b15801561128457600080fd5b505af1158015611298573d6000803e3d6000fd5b505050506040513d601f19601f820116820180604052508101906112bc9190611630565b6112fb576040517f08c379a00000000000000000000000000000000000000000000000000000000081526004016112f290611b16565b60405180910390fd5b836004600082825461130d9190611b8b565b9250508190555080600360008282546113269190611c6c565b9250508190555050505050565b6000600560008373ffffffffffffffffffffffffffffffffffffffff1673ffffffffffffffffffffffffffffffffffffffff168152602001908152602001600020549050919050565b611384611400565b600073ffffffffffffffffffffffffffffffffffffffff168173ffffffffffffffffffffffffffffffffffffffff1614156113f4576040517f08c379a00000000000000000000000000000000000000000000000000000000081526004016113eb90611976565b60405180910390fd5b6113fd8161147e565b50565b6114086115bc565b73ffffffffffffffffffffffffffffffffffffffff16611426610968565b73ffffffffffffffffffffffffffffffffffffffff161461147c576040517f08c379a000000000000000000000000000000000000000000000000000000000815260040161147390611a16565b60405180910390fd5b565b60008060009054906101000a900473ffffffffffffffffffffffffffffffffffffffff169050816000806101000a81548173ffffffffffffffffffffffffffffffffffffffff021916908373ffffffffffffffffffffffffffffffffffffffff1602179055508173ffffffffffffffffffffffffffffffffffffffff168173ffffffffffffffffffffffffffffffffffffffff167f8be0079c531659141344cd1fd0a4f28419497f9722a3daafe3b4186f6b6457e060405160405180910390a35050565b600060038211156115a957819050600060016002846115619190611be1565b61156b9190611b8b565b90505b818110156115a35780915060028182856115889190611be1565b6115929190611b8b565b61159c9190611be1565b905061156e565b506115b7565b600082146115b657600190505b5b919050565b600033905090565b6000813590506115d381611fd5565b92915050565b6000815190506115e881611fec565b92915050565b6000813590506115fd81612003565b92915050565b60006020828403121561161957611618611d46565b5b6000611627848285016115c4565b91505092915050565b60006020828403121561164657611645611d46565b5b6000611654848285016115d9565b91505092915050565b60006020828403121561167357611672611d46565b5b6000611681848285016115ee565b91505092915050565b600080604083850312156116a1576116a0611d46565b5b60006116af858286016115ee565b92505060206116c0858286016115ee565b9150509250929050565b6116d381611ca0565b82525050565b60006116e6602683611b7a565b91506116f182611d4b565b604082019050919050565b6000611709601d83611b7a565b915061171482611d9a565b602082019050919050565b600061172c601a83611b7a565b915061173782611dc3565b602082019050919050565b600061174f601d83611b7a565b915061175a82611dec565b602082019050919050565b6000611772601583611b7a565b915061177d82611e15565b602082019050919050565b6000611795602083611b7a565b91506117a082611e3e565b602082019050919050565b60006117b8601983611b7a565b91506117c382611e67565b602082019050919050565b60006117db601d83611b7a565b91506117e682611e90565b602082019050919050565b60006117fe601c83611b7a565b915061180982611eb9565b602082019050919050565b6000611821601183611b7a565b915061182c82611ee2565b602082019050919050565b6000611844601783611b7a565b915061184f82611f0b565b602082019050919050565b6000611867601d83611b7a565b915061187282611f34565b602082019050919050565b600061188a602683611b7a565b915061189582611f5d565b604082019050919050565b60006118ad601983611b7a565b91506118b882611fac565b602082019050919050565b6118cc81611cde565b82525050565b60006020820190506118e760008301846116ca565b92915050565b600060408201905061190260008301856116ca565b61190f60208301846116ca565b9392505050565b600060608201905061192b60008301866116ca565b61193860208301856116ca565b61194560408301846118c3565b949350505050565b600060408201905061196260008301856116ca565b61196f60208301846118c3565b9392505050565b6000602082019050818103600083015261198f816116d9565b9050919050565b600060208201905081810360008301526119af816116fc565b9050919050565b600060208201905081810360008301526119cf8161171f565b9050919050565b600060208201905081810360008301526119ef81611742565b9050919050565b60006020820190508181036000830152611a0f81611765565b9050919050565b60006020820190508181036000830152611a2f81611788565b9050919050565b60006020820190508181036000830152611a4f816117ab565b9050919050565b60006020820190508181036000830152611a6f816117ce565b9050919050565b60006020820190508181036000830152611a8f816117f1565b9050919050565b60006020820190508181036000830152611aaf81611814565b9050919050565b60006020820190508181036000830152611acf81611837565b9050919050565b60006020820190508181036000830152611aef8161185a565b9050919050565b60006020820190508181036000830152611b0f8161187d565b9050919050565b60006020820190508181036000830152611b2f816118a0565b9050919050565b6000602082019050611b4b60008301846118c3565b92915050565b6000604082019050611b6660008301856118c3565b611b7360208301846118c3565b9392505050565b600082825260208201905092915050565b6000611b9682611cde565b9150611ba183611cde565b9250827fffffffffffffffffffffffffffffffffffffffffffffffffffffffffffffffff03821115611bd657611bd5611ce8565b5b828201905092915050565b6000611bec82611cde565b9150611bf783611cde565b925082611c0757611c06611d17565b5b828204905092915050565b6000611c1d82611cde565b9150611c2883611cde565b9250817fffffffffffffffffffffffffffffffffffffffffffffffffffffffffffffffff0483118215151615611c6157611c60611ce8565b5b828202905092915050565b6000611c7782611cde565b9150611c8283611cde565b925082821015611c9557611c94611ce8565b5b828203905092915050565b6000611cab82611cbe565b9050919050565b60008115159050919050565b600073ffffffffffffffffffffffffffffffffffffffff82169050919050565b6000819050919050565b7f4e487b7100000000000000000000000000000000000000000000000000000000600052601160045260246000fd5b7f4e487b7100000000000000000000000000000000000000000000000000000000600052601260045260246000fd5b600080fd5b7f4f776e61626c653a206e6577206f776e657220697320746865207a65726f206160008201527f6464726573730000000000000000000000000000000000000000000000000000602082015250565b7f416d6f756e74206d7573742062652067726561746572207468616e2030000000600082015250565b7f496e73756666696369656e74206f757470757420616d6f756e74000000000000600082015250565b7f696e6974202d20626f746820746f6b656e7320617265206e6565646564000000600082015250565b7f496e76616c69642073686172657320616d6f756e740000000000000000000000600082015250565b7f4f776e61626c653a2063616c6c6572206973206e6f7420746865206f776e6572600082015250565b7f5472616e73666572206f6620746f6b656e31206661696c656400000000000000600082015250565b7f496e73756666696369656e74206c6971756964697479206275726e6564000000600082015250565b7f696e6974202d20616c726561647920686173206c697175696469747900000000600082015250565b7f416d6f756e743120746f6f20736d616c6c000000000000000000000000000000600082015250565b7f52657365727665732063616e6e6f74206265207a65726f000000000000000000600082015250565b7f496e73756666696369656e74206c6971756964697479206d696e746564000000600082015250565b7f55736520696e697420666f72206669727374206c69717569646974792070726f60008201527f766973696f6e0000000000000000000000000000000000000000000000000000602082015250565b7f5472616e73666572206f6620746f6b656e30206661696c656400000000000000600082015250565b611fde81611ca0565b8114611fe957600080fd5b50565b611ff581611cb2565b811461200057600080fd5b50565b61200c81611cde565b811461201757600080fd5b5056fea2646970667358221220d1b11da669ee4e091cd6d4724f74d6a09a7cb9363462dd80f7abe6172519ae0964736f6c63430008070033",
  "immutableReferences": {},
  "source": "/* Put your Swap contract here */\n// SPDX-License-Identifier: MIT\npragma solidity >=0.8.0 <0.9.0;\nimport \"@openzeppelin/contracts/access/Ownable.sol\";\nimport \"./interfaces/ISwap.sol\";\nimport \"./sAsset.sol\";\n\ncontract Swap is Ownable, ISwap {\n\n    address token0;\n    address token1;\n    uint reserve0;\n    uint reserve1;\n    mapping (address => uint) shares;\n    uint public totalShares;\n\n    constructor(address addr0, address addr1) {\n        token0 = addr0;\n        token1 = addr1;\n    }\n\n    function init(uint token0Amount, uint token1Amount) external override onlyOwner {\n        require(reserve0 == 0 && reserve1 == 0, \"init - already has liquidity\");\n        require(token0Amount > 0 && token1Amount > 0, \"init - both tokens are needed\");\n        \n        require(sAsset(token0).transferFrom(msg.sender, address(this), token0Amount));\n        require(sAsset(token1).transferFrom(msg.sender, address(this), token1Amount));\n        reserve0 = token0Amount;\n        reserve1 = token1Amount;\n        totalShares = sqrt(token0Amount * token1Amount);\n        shares[msg.sender] = totalShares;\n    }\n\n    // https://github.com/Uniswap/v2-core/blob/v1.0.1/contracts/libraries/Math.sol\n    function sqrt(uint y) internal pure returns (uint z) {\n        if (y > 3) {\n            z = y;\n            uint x = y / 2 + 1;\n            while (x < z) {\n                z = x;\n                x = (y / x + x) / 2;\n            }\n        } else if (y != 0) {\n            z = 1;\n        }\n    }\n\n    function getReserves() external view returns (uint, uint) {\n        return (reserve0, reserve1);\n    }\n\n    function getTokens() external view returns (address, address) {\n        return (token0, token1);\n    }\n\n    function getShares(address LP) external view returns (uint) {\n        return shares[LP];\n    }\n\n    /* TODO: implement your functions here */\n    function addLiquidity(uint token0Amount) external override {\n        require(token0Amount > 0, \"Amount must be greater than 0\");\n        require(totalShares > 0, \"Use init for first liquidity provision\");\n        require(reserve0 > 0 && reserve1 > 0, \"Reserves cannot be zero\");\n\n        // Calculate token1Amount using the current pool ratio\n        uint token1Amount = (reserve1 * token0Amount) / reserve0;\n        require(token1Amount > 0, \"Amount1 too small\");\n\n        // Transfer tokens to the contract\n        require(sAsset(token0).transferFrom(msg.sender, address(this), token0Amount), \"Transfer of token0 failed\");\n        require(sAsset(token1).transferFrom(msg.sender, address(this), token1Amount), \"Transfer of token1 failed\");\n\n        // Calculate new LP shares\n        uint newShares = (token0Amount * totalShares) / reserve0;\n        require(newShares > 0, \"Insufficient liquidity minted\");\n\n        // Update reserves and shares\n        reserve0 += token0Amount;\n        reserve1 += token1Amount;\n        totalShares += newShares;\n        shares[msg.sender] += newShares;\n    }\n\n    function removeLiquidity(uint withdrawShares) external override {\n        require(withdrawShares > 0 && withdrawShares <= shares[msg.sender], \"Invalid shares amount\");\n\n        // Calculate withdrawal amounts\n        uint amount0 = (reserve0 * withdrawShares) / totalShares;\n        uint amount1 = (reserve1 * withdrawShares) / totalShares;\n\n        require(amount0 > 0 && amount1 > 0, \"Insufficient liquidity burned\");\n\n        // Update user shares and reserves\n        shares[msg.sender] -= withdrawShares;\n        totalShares -= withdrawShares;\n\n        // If withdrawing all liquidity, reset reserves to zero\n        if (totalShares == 0) {\n            reserve0 = 0;\n            reserve1 = 0;\n        } else {\n            reserve0 -= amount0;\n            reserve1 -= amount1;\n        }\n\n        // Transfer tokens to user\n        require(sAsset(token0).transfer(msg.sender, amount0), \"Transfer of token0 failed\");\n        require(sAsset(token1).transfer(msg.sender, amount1), \"Transfer of token1 failed\");\n    }\n\n    function token0To1(uint token0Amount) external override {\n        require(token0Amount > 0, \"Amount must be greater than 0\");\n\n        // Apply 0.3% protocol fee\n        uint fee = (token0Amount * 3) / 1000;\n        uint token0AmountAfterFee = token0Amount - fee;\n\n        // Calculate token1 output using constant product formula\n        uint token1Amount = reserve1 - (reserve0 * reserve1) / (reserve0 + token0AmountAfterFee);\n\n        //  FIX: Prevent invalid transfers if `token1Amount == 0`\n        require(token1Amount > 0, \"Insufficient output amount\");\n\n        // Transfer tokens\n        require(sAsset(token0).transferFrom(msg.sender, address(this), token0Amount), \"Transfer of token0 failed\");\n        require(sAsset(token1).transfer(msg.sender, token1Amount), \"Transfer of token1 failed\");\n\n        // Update reserves\n        reserve0 += token0Amount;\n        reserve1 -= token1Amount;\n    }\n\n\n    function token1To0(uint token1Amount) external override {\n        require(token1Amount > 0, \"Amount must be greater than 0\");\n\n        // Apply 0.3% protocol fee\n        uint fee = (token1Amount * 3) / 1000;\n        uint token1AmountAfterFee = token1Amount - fee;\n\n        // Calculate token0 output using constant product formula\n        uint token0Amount = reserve0 - (reserve0 * reserve1) / (reserve1 + token1AmountAfterFee);\n\n        require(token0Amount > 0, \"Insufficient output amount\");\n\n        // Transfer tokens\n        require(sAsset(token1).transferFrom(msg.sender, address(this), token1Amount), \"Transfer of token1 failed\");\n        require(sAsset(token0).transfer(msg.sender, token0Amount), \"Transfer of token0 failed\");\n\n        // Update reserves\n        reserve1 += token1Amount;\n        reserve0 -= token0Amount;\n    }\n}",
  "sourcePath": "/Users/ethanpuckett/COS-ECE-473-Spring-2025-Final/Assignments/Assignment4/contracts/Swap.sol",
  "compiler": {
    "name": "solc",
    "version": "0.8.7+commit.e28d00a7.Emscripten.clang"
  },
  "schemaVersion": "3.4.16",
  "updatedAt": "2025-03-26T01:45:07.434Z",
  "networkType": "ethereum",
  "devdoc": {
    "kind": "dev",
    "methods": {
      "owner()": {
        "details": "Returns the address of the current owner."
      },
      "renounceOwnership()": {
        "details": "Leaves the contract without owner. It will not be possible to call `onlyOwner` functions. Can only be called by the current owner. NOTE: Renouncing ownership will leave the contract without an owner, thereby disabling any functionality that is only available to the owner."
      },
      "transferOwnership(address)": {
        "details": "Transfers ownership of the contract to a new account (`newOwner`). Can only be called by the current owner."
      }
    },
    "version": 1
  },
  "userdoc": {
    "kind": "user",
    "methods": {},
    "version": 1
  }
}